:020000040000FA
:0600000071EF0EF012008A
:020006001200E6
:020008001200E4
:06000A000100581D00007A
:08001000800000001800000050
:0800180048EC05F0FB0EDBCF04
:10002000F3FFDB06F35000090AE096EC05F0FA0E48
:1000300001EC06F0F3E1241CF1E1010E01D0000E09
:1000400077EF05F048EC05F03B0EE12402E3E168B0
:10005000E652E16E010EDB6A020EDB6AF90EDBCFBF
:10006000F6FFFA0EDBCFF7FFFB0EDBCFF8FF080041
:10007000F550DF6EDF5002E19BEF04F0250EDF5CF0
:1000800002E08EEF04F0030EDB6A040EDB6A050E5D
:10009000DB6A060EDB6A070EDB6AB0EC04F02D0E9D
:1000A000DF5C0CE02B0EDF5C09E0200EDF5C06E07D
:1000B000230EDF5C03E0300EDF5C1AE1DF50300A14
:1000C00014E0130A0FE0030A0AE00B0A05E0060A2F
:1000D000E4E1030EDB80E1D7030EDB82DED7030E03
:1000E000DB84DBD7030EDB86D8D7030EDB88D5D7BE
:1000F0002A0EDF5C1BE1ACEC04F0FAEC04F010E03B
:10010000030EDB8006680768130EDBCF0BF0140EBE
:10011000DBCF0CF09CEC08F0040E04C0DBFF03D036
:10012000130EE3EC04F0B0EC04F00BD0090EDB6A24
:1001300051EC05F003E0C5EC05F0FAD7090EE3EC4D
:1001400004F0030EDBB0DB982E0EDF5C1BE1B0EC9D
:1001500004F02A0EDF5C0BE1ACEC04F0FAEC04F0E6
:1001600003E1130E35EC05F0B0EC04F00BD0090EF2
:10017000DB6A51EC05F003E0C5EC05F0FAD7090E97
:1001800035EC05F0680EDF5C07E1B0EC04F0680EBA
:10019000DF5C1DE1030E18D0740EDF5C17E07A0EF1
:1001A000DF5C14E0480EDF5C06E0540EDF5C03E029
:1001B0005A0EDF5C02E1020E07D06C0EDF5C03E03A
:1001C0006A0EDF5C04E1010E88EC05F0C9DBDF504C
:1001D0006E0A01E17FD31E0A01E192D1200A01E1FA
:1001E0008FD13F0A01E149D11A0A01E146D10D0A36
:1001F00001E143D1200A01E140D13A0A01E13DD1B8
:10020000200A01E13AD1260A01E135D10D0A01E1C6
:1002100032D11A0A01E1D9D0200A4AE0300A1FE09F
:10022000460A0EE0250A01E083D3D950F90FE96EA2
:10023000FF0EDA20EA6E010EEE5E000EEE5AEE5A66
:1002400096EC05F0250EE66E95DB03E1241C01E13A
:1002500069D392EC05F001E26BD3DB2A69D3080E77
:10026000DB6A040EDB50010806E2040EDB045AECE4
:1002700005F0DB508BDB080EDB5009E0030EDB5092
:10028000010B05E172DB01E04DD3080EDB6A64DB94
:10029000EFCFDFFF0AEC06F003E1241C01E142D3BB
:1002A00092EC05F001E3DB2A60DB01E141D33AD3B4
:1002B000070EDB5002080FE1D6EC05F0030E9DECB3
:1002C00005F00E0EEECFDBFF0F0EEECFDBFF100EB4
:1002D000EECFDBFF20D0F70EDBCF26F0F80EDBCF22
:1002E00027F0020E265E000E275AF70E26C0DBFF0F
:1002F000F80E27C0DBFF26C0E9FF27C0EAFF8DEC20
:1003000005F0256A0E0E23C0DBFF0F0E24C0DBFFB5
:10031000100E25C0DBFF0E0EDBCFE6FF0F0EDBCF8E
:10032000E6FF100EDBCFE6FF68EC0CF0E552E5527D
:10033000E552130E05C0DBFF140E06C0DBFF060EF0
:10034000DB5005E0130ED1EC05F001E26ADBF5ECC1
:1003500005F002E2130E37DBB8EC05F006E0040E00
:10036000D1EC05F002E2050E2EDB030EDBB005D06A
:10037000FCDA01E0D7D2080EDB6A090EDB6A0E0E4A
:10038000DBCFF6FF0F0EDBCFF7FF100EDBCFF8FF52
:100390000800F550DF6EDF5014E0FBEC05F011E2D1
:1003A0000AEC06F003E1241C01E1BCD2BBDB01E353
:1003B000DB2A090EDB2AD9500E0FE96E000ECBDBCB
:1003C000E7D7D3DA01E1B4D2ADD2C6DA110EEECF5F
:1003D000DBFF120EEDCFDBFF110EDBCFE6FF120EBF
:1003E000DBCFE6FF5AEC0CF0E552E552130EF3CFEB
:1003F000DBFF140EF4CFDBFF060EDB5004E0130E20
:10040000D0DB01E20EDBF5EC05F002E2130EDBDAE5
:10041000AFDB05E0040EC5DB02E2050ED4DA030E05
:10042000DBB005D0A2DA01E07DD2080EDB6A090E4E
:10043000DB6A110EDBCFE9FF120EDBCFEAFFEFCF55
:10044000DFFFDF5014E0D7DB12E2E4DB03E1241C22
:1004500001E168D267DB01E3DB2A090EDB2A110E1A
:10046000DB2ADBCFE9FF120EE8E3DB2AE6D77DDAF1
:1004700001E15ED257D2030EDB8E070EDB0410E1E2
:1004800095DB040E5ADB0A0EEECFDBFF0B0EEECF30
:10049000DBFF0C0EEECFDBFF0D0EEECFDBFF6CD0E3
:1004A000070EDB5003082CE1030EDBAE0DD0B2DAF1
:1004B000020E76DAEFCF23F0246A256A266A23AE8D
:1004C00039D02468256835D0F70EDBCF24F0F80E3C
:1004D000DBCF25F0020E245E000E255AF70E24C055
:1004E000DBFFF80E25C0DBFF24C0E9FF25C0EAFFD3
:1004F000EFCF23F00A0E23C0DBFF0B0EDB6A38D0F0
:10050000070EDB50020809E1030EDBAE04D059DB15
:1005100025AE10D00ED055DB0DD0030EDBAE12D0C1
:1005200079DA020E3DDAF9DA256A266A24AE02D0BB
:1005300025682668E2DA0C0E25C0DBFF0D0E26C00A
:10054000DBFF1AD0F70EDBCF25F0F80EDBCF26F05D
:10055000020E255E000E265AF70E25C0DBFFF80EB0
:1005600026C0DBFF25C0E9FF26C0EAFFD6DAC5DAE0
:100570000C0EDB6A0D0EDB6A060EDB5005E1010E88
:10058000F36E050EF3CFDBFF150EDB6A160EDB6A8A
:10059000D950370F236E000EDA20246E390E23C097
:1005A000DBFF3A0E24C0DBFF380EDB6A080EDB6A85
:1005B0000A0EAEDADF50780A12E0200A10E0280AAC
:1005C0000CE0200A0AE03F0A06E00D0A02E0200AD9
:1005D00008E1020E05D0080E03D0080EDF26100E2B
:1005E00097DA030EDBBE02D0DB92DB94DB50800B8C
:1005F00024E08ADAD890030EEB50000A08E6000ED9
:10060000EE5C000EEE58000EEE58000EEE5815E2AD
:1006100013DA09680A680B680C6822EC0CF00A0E01
:1006200000C0DBFF0B0E01C0DBFF0C0E02C0DBFFC6
:100630000D0E03C0DBFF2D0E08D0030EDBA202D08F
:100640002B0E03D0DBA408D0200EF36E170EF3CFD1
:10065000DBFF150EDB2A02D0170EDB6A050EDB501E
:1006600003E1B7D901E189D0300E236E1D0E246E4F
:10067000000E256E070EDBCF26F0276A286A296A4E
:1006800026C009F027C00AF028C00BF029C00CF0E2
:10069000D3D9D5EC0CF023500024F36E2450012064
:1006A000F46E25500220F86EF4CFF7FFF3CFF6FF7B
:1006B0000800090EF5CFDBFF580EDF5C0FE1610E7D
:1006C000F36E090E7BD90AE3200E236E090EDBCFF1
:1006D000E7FF2350E75E090EE7CFDBFF070EDBCF16
:1006E00023F0246A256A266A0FDA23C009F024C0A1
:1006F0000AF025C00BF026C00CF0EECF04F0EECFD0
:1007000005F0EECF06F0EFCF07F0D5EC0CF007C008
:10071000EDFF06C0EDFF05C0EDFF04C0EFFF390E91
:10072000DBCFE9FFDB063A0EDBCFEAFF01E2DB06B7
:10073000090EDBCFEFFF150EDB2A4BD995E1030E37
:10074000DBA61DD06F0EDF5C06E1C1D918E3150EE4
:10075000DB285BDA14D0780EDF5C09E0580EDF5C32
:1007600006E0620EDF5C03E0420EDF5C08E1020E91
:10077000F36E160EF3CFDBFF02D0150EDB6A030E0D
:10078000DB50100B0EE0040EDBCF23F0050EDB5028
:10079000D880235406E2060EDB5003E1040EDB5042
:1007A00034DA95D90AE2050EDBCFE7FF150EDB50F0
:1007B000E75E050EE7CFDBFF02D0050EDB6A040E15
:1007C000DBCF23F0160E45D9D880235414E2160E41
:1007D000DBCFE6FF150EDBCFE6FF040EDBCFE6FF37
:1007E000050EDB50E552E75CE552D880E754E55250
:1007F000D880E7545FD9030EDB50010B0BE1080EE4
:10080000DB5008E0B2D801E08DD0080EDB50BED836
:10081000080EDB6A170EDB5007E088D9170EF1D9F6
:1008200003E1241C01E17ED0160EDB5016E07ED9D8
:10083000300EE66E9FD802E1241C74E077D9DFCF3A
:10084000E6FFE0EC0BF0E552E552E552F4CF24F080
:100850000001F31C02E1241C65E0050EDBCF23F050
:10086000160EDB50D880235409E2050EDBCFE7FFDC
:10087000160EDB50E75E050EE7CFDBFF300EE66EAF
:10088000050ECBD94FE1390EDB2ADBCFE9FF3A0E5B
:1008900001E3DB2ADBCFEAFF090EEFCFDBFFDB5002
:1008A0000EE044D9090EADD902E1241C3BE0390E1B
:1008B000DB2ADBCFE9FF3A0EEDE3DB2AEBD755D895
:1008C00031E1160EDBCFE6FF080EC3D8E552E72470
:1008D0005DD82ED0070EDB50030A1CE0010A14E09D
:1008E000030A07E07BD9DBCFEEFF020EDBCFEDFF83
:1008F0001FD0F5D8286A26AE02D0276828682CD8E1
:10090000BCD828C0EEFF14D0EAD826BE276824D869
:10091000B4D80ED063D9DBCFEFFF0AD07BD905E185
:10092000241C03E1F368F46810D0FCD801E3DB2A4F
:1009300079D937EF00F0010EDBCF23F0020EDBCFC9
:1009400024F023C0F3FF24C0F4FF3B0EE15C02E27D
:10095000E16AE552E16ECBD029D9020E9DEF05F098
:1009600061D90800F550DF6E1200200EE66E080E09
:100970000DEF06F0E0EC0BF0E552E552E552F3CF57
:1009800023F0F4CF24F00001F31C1200236E246A3C
:10099000D950010F4DD92350EE262450ED221200DC
:1009A000275E000E285AF70E27C0DBFFF80E28C07E
:1009B000DBFF27C0E9FF28C0EAFF1200DBCFF4FF0E
:1009C000F350F45C1200DB50E76E040EE7CFDBFF60
:1009D00012000A0EDBCF23F00B0EDBCF24F00C0E3F
:1009E000DBCF25F00D0EDBCF26F023502410251091
:1009F00026101200130EEECFDBFF140EEDCFDBFF3F
:100A0000130EDBCF23F0140EDBCF24F00001800E99
:100A100024141200F70EDBCF27F0F80EDBCF28F0FE
:100A20001200050EDB50E66ED950130F01D9E552C6
:100A3000E750EE6EED6A12000A0EDBCF04F00B0EEB
:100A4000DBCF05F00C0EDBCF06F00D0EDBCF07F091
:100A50001200DBCFE6FF150EDBCFE6FF050EDB5005
:100A6000E552E724E552E7241200DB50CED8010E10
:100A7000F36E060EF3CFDBFF1200EE50EFCFEAFF6E
:100A8000E96E25C0EEFF26C0EEFF27C0EEFF120084
:100A9000D9CFE6FFDACFE6FFE1CFD9FFE2CFDAFF29
:100AA0001200DFCFE6FFE66A4FEC0EF0E552E552AA
:100AB000F3501200E76E080EE7CFDBFF1200EECF17
:100AC00023F0EECF24F0EFCF25F0266A1200050EBA
:100AD000DBCF23F0150EDB50D88023541200010E1B
:100AE000DBCF25F0020EDBCF26F0276A1200E5529D
:100AF000E5CFDAFFE7CFD9FF12000A0E23C0DBFFF4
:100B00000B0E24C0DBFF1200D9500A0F18EF06F0BD
:100B1000F36E070EF3CFDBFF1200EECF23F0EFCF23
:100B200024F01200010EDB2A020E1200FC0EDBCFB5
:100B3000E6FFFD0EDBCFE6FF1200235E000E245A17
:100B4000F70E23C0DBFFF80E24C0DBFF23C0E9FF54
:100B500024C0EAFF1200DA20EA6EEF2AEECFF6FF99
:100B6000000EEF22EECFF7FFEF22EECFF8FF1200DC
:100B7000040EDBCFE6FF130EDB50E552E75C9ADF95
:100B8000DB5004DF060EDB501200090EDB500A0DAD
:100B9000F350DF24D00FE76E090EE7CFDBFFB0EF95
:100BA00004F0DB50F36E050EDEEF04F0F70EDBCF42
:100BB00023F0F80EDBCF24F01200DFCFE6FFBAEF10
:100BC00004F028DF030EECDE5FEF05F00CEC00F024
:100BD000E552E552E552E55200091200BDDEEE5045
:100BE000EFCFEAFFE96E010E1200130EDB50F36E39
:100BF000040EDEEF04F0040EDB50F36E090EDEEFA0
:100C000004F0DBCFE6FFBAEF04F0E76E050EE7CFA6
:100C1000DBFF12008BDFDDEF05F0DBCFE6FF86DFC9
:100C2000E6EF05F0D950F90FE96EFF0EABEF05F0D6
:0A0C3000E96E000EDA20EA6E1200F1
:060C3A000F9E08D00F9E82
:100C400007AE05D0066C071EE86A07220F8E07C0A4
:100C500001F006C000F0136A126A8E0E026E036A7B
:100C600032EF08F00F6A6EEC08F086EC08F00FB671
:100C700016EF08F00FA205D00FBA16EF08F01DEF1F
:100C800008F00FBA29EF08F00FA005D00FB816EF43
:100C900008F029EF08F00FB81DEF08F0036A7F0E87
:100CA0000824026EE86A03220D50025EE86A035AC5
:100CB0001A0E106E086A126A136A006A016A0A50F4
:100CC000055E0B50065A0C50075A000E085A09E7E9
:100CD0000A5005260B5006220C500722000E08224F
:100CE00001D0128AD8900536063607360836D890D5
:100CF0001236133600360136102EE1D70750061093
:100D00000510D8A4128A32EF08F00F6A6EEC08F0D2
:100D100086EC08F00FB616EF08F00FA205D00FB85A
:100D200016EF08F01DEF08F00FAA05D00FB016EF70
:100D300008F01DEF08F00FB002D00FA802D029EF85
:100D400008F0036A0D500824026EE86A03227E0E42
:100D5000025EE86A035A126A136A006A016A0C505A
:100D60000702F4CF01F0F3CF00F00B500702F3506D
:100D70001326F4500022000E01220C500602F350FC
:100D80001326F4500022000E01220A500702F350ED
:100D90001226F4501322000E002201220B500602EC
:100DA000F3501226F4501322000E002201220C50A0
:100DB0000502F3501226F4501322000E00220122E5
:100DC0000A500602F4501226000E132200220122BD
:100DD0000B500502F4501226000E132200220122AD
:100DE00032EF08F00D7E0F6A6EEC08F086EC08F02A
:100DF0000FB616EF08F00FA20AD00FAA03D00FBE4D
:100E000016EF08F00FA422EF08F01FEF08F00FAA6A
:100E100005D00FAC22EF08F01FEF08F00FA00AD0AA
:100E20000FA808D00FBE04D00FA402D02BEF08F0FB
:100E30002FEF08F0126A036A0D50085C116E10E380
:100E400005C013F006C000F007C001F008C010F0A4
:100E50000AC005F00BC006F00CC007F00F3A09D02D
:100E60000AC013F00BC000F00CC001F00DC010F070
:100E7000116C0F9E0FBC0F8E10C002F00FB05EEF12
:100E800008F01A0E11605EEF08F0026A086A0FA4FB
:100E900008D0056C061E071E081EE86A06220722F7
:100EA00008220FAC08D0136C001E011E021EE86A57
:100EB000002201220222046A115207E0083407329C
:100EC000063205320432112EF9D70550132606508A
:100ED0000022075001220850022204C012F00F9E87
:100EE00002AE0BD0126C131E001E011E021EE86A19
:100EF00013220022012202220F8E02A006D0D880E7
:100F00000132003213321232102A10C002F032EFD6
:100F100008F00F6A6EEC08F00FB693EF07F00FA21F
:100F20000ED00FB405D07F0E076EFF0E066E1FD0D9
:100F3000800E076E066A1BD0076A066A18D00FB0CB
:100F4000FBD78F0E0860EDD77E0E0864F5D78E0EA6
:100F5000085C05E0D89007320632082AF8D70FA4BB
:100F600006D0066C071EE86A072207AEE5D7120016
:100F7000C1EC07F00FB6000C0FB0000C0FB4000C62
:100F8000010C0F6A6EEC08F086EC08F00FB6120048
:100F90000FAE08D00FA004D00FA802D00F8012000F
:100FA0000F9012000D50085C0BE10C50075C08E13B
:100FB0000B50065C05E10A50055C02E10F8012004F
:100FC000D8A002D00F8E10D008500DC008F00D6EC2
:100FD00007500CC007F00C6E06500BC006F00B6EED
:100FE00005500AC005F00A6E0D50085C10E0FF0FB6
:100FF00009E00F900FB403D00FAE0F8412000FAEB4
:101000000F9412000D2AD8900C320B320A320A507B
:10101000055E0B50065A0C50075A07BEEAD7D89007
:10102000053606360736082EF8D7C8D77F0E086E65
:10103000FF0E076E066E056E12007F0E0FBEFF0ECE
:10104000086E02D07F0E086E800E076E066A056A73
:10105000F3D70FAE04D0800E086E076AF7D7086A80
:10106000076AF4D70150001013101210F8E003BE05
:10107000F0D701BE0CD002500310EBE0D89012362E
:101080001336003601360206D8A00306F2D7035005
:10109000D4E10228D2E012AE11D07F0E121402E188
:1010A00013A00CD0132AE86A0022012207E3D8809B
:1010B000013200321332022A0228BFE00250C9E096
:1010C00013C005F000C006F00134076E0230086E50
:1010D0000732089E0FBE088E1CEF08F00736083650
:1010E00002E30F840F7E06E10F80086A076A066A32
:1010F000056A1200082803E0D88007321200D89051
:10110000073202E10F8212000F8612000C360D36F4
:1011100002E30F8C0F7E06E10F880D6A0C6A0B6AE2
:101120000A6A12000D2803E0D8800C321200D89011
:101130000C32EAE10F8A120007C013F006C012F069
:1011400006500B02F4CF05F0F3CF04F007500C0269
:10115000F4CF07F0F3CF06F00B02F3500526F4505E
:101160000622E86A072212500C02F3500526F450BA
:101170000622E86A07220CAEC2EF08F01250065EA3
:101180001350075A13AE000C0B50065E0C50075A52
:02119000000C51
:0E119200DACFE4FFE2CFDAFFE9CFE4FFEACFE5
:1011A000E4FFF6CFE4FFF7CFE4FFF5CFE4FFF3CFA2
:1011B000E4FFF4CFE4FFFACFE4FF00EE00F0140EFA
:1011C000E80403E3EECFE4FFFBD700EE23F0080EC4
:1011D000E80403E3EECFE4FFFBD7E652D9CFE6FF06
:1011E000E1CFD9FF040EE126DE6ADE6ADE6ADD6A3F
:1011F000DD52DD529EA4D5D09E9400018051811114
:1012000001E0CFD08251831107E13FEC0DF0F3CF25
:1012100084F0F4CF85F001D0CED90001010E806FAB
:10122000816B8251831102E0000E01D0010E146E19
:10123000156A14BE1568010E1416000E151614500A
:10124000151001E0B8D90001802B000E8123010E9A
:10125000801901E1815102E0000E01D0010E146EEF
:101260008251831102E0000E01D0010E141001E141
:1012700098D0010E826F836B88C01AF089C01BF072
:101280001C6A100ED8901A361B361C36E806FAE196
:1012900086C01DF087C01EF01F6A1A501D24176EED
:1012A0001B501E20186E1C501F20196E84C020F089
:1012B00085C021F0226A2050175C146E2150185806
:1012C000156E22501958166E14C08AF015C08BF096
:1012D00000018C2B000E8D2386C08EF087C08FF00E
:1012E00086C084F087C085F014C006F015C007F0F2
:1012F00043D97A0E0C6E440E0D6E32EC06F005C02A
:10130000DEFF06C0DEFF07C0DEFF08C0DDFFDD52E6
:10131000DD52D9CFE9FFDACFEAFFEECF14F0EECFFE
:1013200015F0EECF16F0EFCF17F00A6A0B6A480EF1
:101330000C6E420E0D6E14C005F015C006F016C0FE
:1013400007F017C008F0B8EC07F0010A04E100014B
:10135000902B000E91230001806B816B0A0ED880C8
:101360008C55000E8D551DE290C006F091C007F01F
:1013700003D9200E0C6E410E0D6E32EC06F009D929
:101380000A6A0B6AC80E0C6E420E0D6E85EC06F0F2
:1013900000D9010E0001926F936BA8EC0EF0A5EC42
:1013A0000EF09E80010E000905E09E900001882B42
:1013B000000E8923040EE15C02E2E16AE552E16E6F
:1013C000E552E7CFD9FFE55200EE2AF0080EE80417
:1013D00003E3E5CFEDFFFBD700EE13F0140EE804B6
:1013E00003E3E5CFEDFFFBD7E5CFFAFFE5CFF4FF51
:1013F000E5CFF3FFE5CFF5FFE5CFF7FFE5CFF6FF4C
:10140000E5CFEAFFE5CFE9FFE5CFDAFF1100000005
:10141000000000000000010EE66E8DEC0EF0E552BB
:101420001200060EE9EF0AF0020EE9EF0AF0D9CF3A
:10143000E6FFE1CFD9FF140EE126DE6ADD6A020E77
:10144000DB6A030EDB6AAED889EC07F006C0DEFF6C
:1014500007C0DDFF000EDFCF06F0010EDBCF07F087
:101460001FEC06F005C027F006C028F007C029F0E1
:1014700008C02AF005C00AF006C00BF007C00CF047
:1014800008C00DF08FD8F2EC06F005C023F006C0BE
:1014900024F007C025F008C026F00A6A400E0B6E43
:1014A0001C0E0C6E460E0D6E85EC06F089EC07F0F6
:1014B000020E06C0DBFF030E07C0DBFFDECFE6FF38
:1014C000DDCFE6FF410E236E1D0E246E256A23C07C
:1014D000E6FFE66E25C0E6FF75D8EEEC0AF0266E54
:1014E000070EE15E265039EC0EF00009FCE1E66AD9
:1014F0008DEC0CF0E55266D8E9EC0DF0E552E552C2
:10150000260E67D8140EE15C02E2E16AE552E16E54
:10151000E552E7CFD9FF1200D08E9E949F849F8022
:101520009D809E909482850EE66EC8EC0DF0E5528B
:10153000850EE66E0AEC0EF0E552280EE66E93EC90
:101540000BF0E55239EC0EF00009FCE1280EE66ED6
:101550001CEC0DF0E55239EC0EF00009FCE1060E32
:10156000E66E1CEC0DF0E5520001010E9219FCE153
:101570009351FAE15CDFF8D71DEC06F005C014F0DA
:1015800006C015F007C016F008C017F00A6A0B6A0B
:10159000120005C094F006C095F007C096F008C090
:1015A00097F0120094C005F095C006F096C007F0C1
:1015B00097C008F012003FEC0DF0F3CF86F0F4CFA7
:1015C00087F01200D950040FE66E000EDA20E66EA6
:0C15D0001200E66E22EC0EF0E552120054
:0415DC00D9CFE6FF7E
:1015E000DACFE6FFE1CFD9FFE2CFDAFFE652E652EB
:1015F000E652E652D950F90F236EFF0EDA20246E20
:10160000020E23C0DBFF030E24C0DBFF020EDBCF84
:10161000E6FF030EDBCFE6FFF90EDBCFE6FFFA0EA7
:10162000DBCFE6FFFB0EDBCFE6FFD950FC0FE66E0B
:10163000FF0EDA20E66E22EC00F0236E070EE15C6E
:1016400002E2E16AE552E16E2350F3CFDEFFF4CF10
:10165000DDFFFC0EDBCFE9FFFD0EDBCFEAFFEF6A1B
:10166000DECF23F0DDCF24F023C0F3FF24C0F4FF4E
:10167000040EE15C02E2E16AE552E16EE552E5CF7B
:08168000DAFFE7CFD9FF1200E9
:081688000A0EF66E000EF76E6B
:10169000000EF86E00010900F5509D6F0900F5502D
:1016A0009E6F03E19D6701D03DD00900F550986F12
:1016B0000900F550996F0900F5509A6F090009006B
:1016C000F550E96E0900F550EA6E090009000900BD
:1016D000F5509B6F0900F5509C6F09000900F6CF8B
:1016E0009FF0F7CFA0F0F8CFA1F098C0F6FF99C017
:1016F000F7FF9AC0F8FF00019B5302E19C5307E0FB
:101700000900F550EE6E9B07F8E29C07F9D79FC0E1
:10171000F6FFA0C0F7FFA1C0F8FF00019D07000E73
:061720009E5BBFD7120022
:0A172600D9CFE6FFE1CFD9FF0F0E87
:10173000831695169594959295908C948C928C9096
:1017400011EC0AF0300E33D8050EE66E22EC0EF0E6
:10175000E552300E2CD8010EE66E22EC0EF0E5526A
:10176000320E25D829D8FEE127D8FEE1FE0EDBCFC8
:10177000E6FF1CEC0DF0E5521FD8FEE1080E17D86D
:101780001BD8FEE10F0E13D817D8FEE1010E0FD8BB
:1017900013D8FEE1040E0BD80FD8FEE1800EE66EE2
:1017A0008DEC0CF0E552E552E7CFD9FF1200E66E62
:1017B0001CEC0DF0E552120039EC0EF0000912009D
:1017C000D9CFE6FFDACFE6FFE1CFD9FFE2CFDAFFEC
:1017D000FB0EDBCF23F0FC0EDBCF24F00001800EEC
:1017E00024141AE1FB0EDBCFE9FFFC0EDBCFEAFF8E
:1017F000EECFF3FFEDCFF4FFEE2A000EEF22F3CF92
:10180000E9FFF4CFEAFFFD0EDBCFEFFFEF50246AD4
:10181000F36E24C0F4FF10D0FB0EDB50FE0806E18F
:10182000FD0EDBCFE6FF7FEC0EF005D0FD0EDBCF2B
:10183000E6FF03EC00F0E552E552E5CFDAFFE7CF33
:04184000D9FF1200BA
:0C18440004500902F3CF00F0F4CF01F0D3
:101850000A02F3500126000EF420026E04500B021F
:10186000F3500226000EF420036E04500C02F350D5
:10187000032605500902F3500126F4500222000EFF
:10188000032205500A02F3500226F45003220550A9
:101890000B02F350032606500902F3500226F450BF
:1018A000032206500A02F350032607500902F350A0
:0418B00003261200F9
:0C18B400FE0EE3CFE9FFFF0EE3CFEAFFDA
:1018C000F36AF46AEE5203E0F34AF42AFBD71200FB
:1018D000FF0EE3CFF8FFE552FF0EE3CFF7FFE5522F
:1018E000FF0EE3CFF6FFE552E66AE66AE66A090014
:1018F000F55209E0FD0EE32A05E1FE0EE32A02E1BE
:10190000FF0EE32AF4D7FD0EE3CF05F0FE0EE3CF82
:0A19100006F0FF0EE3CF07F012000F
:06191A00D9CFE6FFE1CF8A
:10192000D9FF0F0E95168316FE0EDB508009F00BC3
:1019300083128C948C920ED80F0E8316FE0EDB3819
:10194000F00BF00B831206D8F00E9512E552E7CF9C
:10195000D9FF120007EC0AF08C8007EC0AF08C909B
:02196000120073
:0E196200D9CFE6FFE1CFD9FF0F0E9516831601
:10197000FE0EDB504009F00B83128C948C920ED833
:101980000F0E8316FE0EDB38F00BF00B831206D819
:10199000F00E9512E552E7CFD9FF120007EC0AF0DE
:0A19A0008C8007EC0AF08C90120016
:0619AA00036A026A016AF3
:1019B000006A200EE76ED8900436053606360736E4
:1019C00000360136023603360950005C0A500158D1
:1019D0000B5002580C50035809E30950005E0A509E
:1019E000015A0B50025A0C50035A042AE72EE4D72E
:0219F0001200E3
:0E19F200D9CFE6FFE1CFD9FF0F0E9516831671
:101A0000FE0EDB50F00B83128C828C940ED80F0EDE
:101A10008316FE0EDB38F00BF00B831206D8F00EA7
:101A20009512E552E7CFD9FF120007EC0AF08C803F
:081A300007EC0AF08C90120093
:081A3800D9CFE6FFE1CFD9FF91
:101A40000F0E95168316FE0EDB50F00B83128C944E
:101A50008C920ED80F0E8316FE0EDB38F00BF00BB7
:101A6000831206D8F00E9512E552E7CFD9FF120087
:0E1A700007EC0AF08C8007EC0AF08C90120054
:021A7E00D9CFBE
:101A8000E6FFDACFE6FFE1CFD9FFE2CFDAFFE65299
:101A9000E6520001A2919EB4A281BE50DF6E010EFB
:101AA000BFCFDBFFDECF23F0DDCF24F023C0F3FF79
:101AB00024C0F4FFE552E552E552E5CFDAFFE7CF67
:041AC000D9FF120038
:0C1AC400D9CFE6FFE1CFD9FFE6528C84B9
:101AD0008C8207EC0AF08C8007EC0AF0F00E83147D
:101AE000DF6E8C9007EC0AF08C8007EC0AF08338EC
:101AF0000F0B0F0BDF128C908C928C94DF50E55201
:081B0000E552E7CFD9FF120006
:081B0800D9CFE6FFE1CFD9FFC0
:101B1000E6528C848C9207EC0AF08C8007EC0AF079
:101B2000F00E8314DF6E8C9007EC0AF08C8007ECCB
:101B30000AF083380F0B0F0BDF128C908C947F0E02
:0C1B4000DF14E552E552E7CFD9FF120098
:041B4C00D9CFE6FF08
:101B5000E1CFD9FF14D80FE039EC0EF00009FCE119
:101B60000ED8E66EF9EC0CF0E552FD0EDB2AFE0E07
:101B7000F1E3DB2AEFD7E552E7CFD9FF1200FD0EE4
:101B8000DBCFF6FFFE0EDBCFF7FF0800F5501200AB
:101B9000D9CFE6FFDACFE6FFE1CFD9FFE2CFDAFF18
:101BA000FD0EDB507E0BCD6EFD0EDBAC02D0CD8E7C
:101BB00001D0CD9ECF6ACE6A9E90DBAE02D09D80D2
:101BC00001D09D90CD80E552E5CFDAFFE7CFD9FF78
:021BD000120001
:0E1BD200D9CFE6FFE1CFD9FF14D80FE039ECF0
:101BE0000EF00009FCE10ED8E66EF9EC0CF0E552BF
:101BF000FD0EDB2AFE0EF1E3DB2AEFD7E552E7CF3D
:101C0000D9FF1200FD0EDBCFE9FFFE0EDBCFEAFFAE
:041C1000EF5012007F
:0C1C1400D9CFE6FFDACFE6FFE1CFD9FF21
:101C2000E2CFDAFFFD0EDB500F0BBD6EFD0EDBAE1B
:101C300002D09E949D849484E552E5CFDAFFE7CFED
:041C4000D9FF1200B6
:0C1C4400FF0EE3502C6EEF0E01D0F30EEB
:101C5000E76EE72E29EF0EF00C0E2B6EE76AE72EEB
:101C60002FEF0EF02B2E2EEF0EF02C2E27EF0EF076
:021C7000120060
:0E1C72008C848C9207EC0AF08C8007EC0AF050
:101C800083AE02D003D8010C01D8000C8C9007EC75
:0E1C90000AF08C8007EC0AF08C908C94120005
:021C9E00F36AE7
:101CA000F46AFF0EE124E96EFF0EE220EA6EED66B3
:101CB00007D02F0EEF6404D03A0EEF6001D0F32A64
:021CC000120010
:0E1CC200000EF36E00EE00F0060E01D81200C8
:101CD000EA6002D0EE6AFCD7F350E9601200EE6AC7
:021CE000FCD72F
:0E1CE20015EE00F025EE00F0F86A0F9C44ECC1
:0E1CF0000BF0ABEC0EF08CEC0AF0FBD7120000
:021CFE00FF0ED7
:101D0000E350ACBA04D0AF6AAB8EAC8A949CACA260
:0A1D1000FED7AD6EF36EF46A120008
:061D1A00FF0EE350E84E4D
:101D20001200000000D000D000D0E82EFAD7120038
:101D30003031323334353637383961626364656641
:011D400000A2
:091D41004852563A2025642500A1
:061D4A00CD909D901200F7
:061D50009D94BD6A120023
:021D5600120079
:081D5800000000000000000083
:101D60000000000000000000000000000000000073
:020000040030CA
:0100010022DC
:010003000EEE
:010006008178
:00000001FF
