:020000040000FA
:060000000DEF2FF01200CD
:08000800D0BE0AEF2FF0CFEF8C
:0400100026F01200C4
:06001800CFEF26F01200FC
:06002A000100AC5E0000C5
:080030000305000014000000AC
:0800380010EC26F05CEC05F071
:1000400080EC05F02AEC06F0D1EC04F0D3EC05F0DE
:10005000FEEC05F011EC26F0120001017C050EE12A
:1000600001017451006E016AD890015004E6FF0E40
:10007000005C000E015802E20101742B1200D9CF7E
:10008000E6FFDACFE6FFE1CFD9FFE2CFDAFFE652B3
:1000900001017C0573E1C00EF214DF6E800ED014F6
:1000A0003F09F21601017451000802E201017407D0
:1000B0000101745161E1010176515EE1220E006E91
:1000C000540E016E000E026E79C103F0046A056AD7
:1000D00000500324F36E01500420F46E02500520FA
:1000E000F86EF4CFF7FFF3CFF6FF0800F5CF75F108
:1000F000220E016E540E026E000E036E0101755148
:10010000EA6A7A0FE96E010EEA22EFCF04F0056A7F
:10011000066A01500424F36E02500520F46E035069
:100120000620F86EF4CFF7FFF3CFF6FF0800F5CF07
:1001300000F001017551080DF35000240101786FA2
:10014000010177510101785D17E001017851E96EF5
:10015000EA6AD890E936EA36EE0EE926010EEA227E
:10016000EECFEAF1EDCFEBF10001B02B000EB123A1
:10017000B223B32318EC27F0DF50F212E552E55218
:10018000E5CFDAFFE7CFD9FF1200D9CFE6FFDACF0C
:10019000E6FFE1CFD9FFE2CFDAFFE65201017C05AD
:1001A00017E1C00EF214DF6E800ED0143F09F21674
:1001B00001017651006E016AD890015004E6FF0EED
:1001C000005C000E015802E20101762BDF50F212B2
:1001D000E552E552E5CFDAFFE7CFD9FF1200D9CFDC
:1001E000E6FFDACFE6FFE1CFD9FFE2CFDAFFE65252
:1001F00001017C051DE1C00EF214DF6E800ED014EB
:100200003F09F21601017651000810E2010176075C
:100210000101765108E10101745105E1DF50F2124C
:10022000C4EC06F002D0DF50F21202D0DF50F2121E
:10023000E552E552E5CFDAFFE7CFD9FF1200D9CF7B
:10024000E6FFDACFE6FFE1CFD9FFE2CFDAFFE652F1
:10025000E65201017C515CE1220E006E540E016EEB
:10026000000E026E79C103F0046A056A005003248F
:10027000F36E01500420F46E02500520F86EF4CFA6
:10028000F7FFF3CFF6FF0800F550DF6E220E006E89
:10029000540E016E000E026EDF50EA6A7A0FE96EAC
:1002A000010EEA22EFCF03F0046A056A005003242E
:1002B000F36E01500420F46E02500520F86EF4CF66
:1002C000F7FFF3CFF6FF0800010EF5CFDBFF010EBD
:1002D000DBCFE6FFDF50080DF350E552E7240101C4
:1002E000786F78C177F101017851E96EEA6AD890A8
:1002F000E936EA36EE0EE926010EEA22EECFEAF101
:10030000EDCFEBF1EAC1E6F1EBC1E7F112EC26F03B
:10031000E552E552E552E5CFDAFFE7CFD9FF12000B
:10032000D9CFE6FFDACFE6FFE1CFD9FFE2CFDAFFA0
:10033000E652020EE66EE66A76EC17F0E552E552FA
:10034000C00EF214DF6E800ED0143F09F2160101C8
:100350007E6B7F6B806B816BDF50F212640EE66EFA
:10036000E66A76EC17F0E552E552C00EF214DF6E45
:10037000800ED0143F09F2167EC107F17FC108F14B
:1003800080C109F181C10AF10101010E0F6FDF5037
:10039000F212E552E552E5CFDAFFE7CFD9FF1200BE
:1003A000D9CFE6FFDACFE6FFE1CFD9FFE2CFDAFF20
:1003B000E652E652E65200EC26F0C00EF214DF6E72
:1003C000800ED0143F09F21603016A2B000E6B2336
:1003D0006C236D23DF50F21201017C0501E0A0D0F7
:1003E000010EECC1DBFF020EEDC1DBFF010EDBCF26
:1003F000E9FF020EDBCFEAFF170EE926000EEA2224
:10040000EFCF00F0016A026A036A0F0E001805E1DF
:10041000015003E1025001E1035001E181D0C00E1F
:10042000F214DF6E800ED0143F09F216010EDBCFFE
:10043000E9FF020EDBCFEAFF140EE926000EEA22E6
:10044000EE50ED105AE0010EDBCFE9FF020EDBCFDC
:10045000EAFF140EE926000EEA22EE06000EED5A1F
:10046000EECF00F0EDCF01F00050011046E1010E9B
:10047000DBCFE9FF020EDBCFEAFF160EE926000E06
:10048000EA22EF50080B2CE1010EDBCFE9FF020E50
:10049000DBCFEAFF1B0EE926000EEA22EF50010136
:1004A0007913010EDBCFE9FF020EDBCFEAFF1A0E54
:1004B000E926000EEA22EFCF00F0010EDBCFE9FFC4
:1004C000020EDBCFEAFF190EE926000EEA22EF50FA
:1004D000EA6A7A0FE96E010EEA220050EF120DD09F
:1004E000010EDBCFE9FF020EDBCFEAFF140EE92697
:1004F000000EEA22010EEE6EED6A010EDBCFE9FF7F
:10050000020EDBCFEAFF0E0EE926000EEA22010EF4
:10051000EECFDBFF020EEDCFDBFFDF50F21266D72E
:10052000E552E552E552E552E5CFDAFFE7CFD9FFD4
:100530001200FC0EF36EF46A00D012001200D9CF44
:10054000E6FFDACFE6FFE1CFD9FFE2CFDAFF070E11
:10055000E12402E3E168E652E16E220E006E540EE1
:10056000016E000E026EFC0EDBCFE9FFFD0EDBCF4D
:10057000EAFFEE52EFCF03F0046A056A005003244D
:10058000F36E01500420F46E02500520F86EF4CF93
:10059000F7FFF3CFF6FF0800030EF5CFDBFF1A0ECF
:1005A000006E540E016E000E026E030EDBCF03F0E0
:1005B000046A056A00500324F36E01500420F46EAF
:1005C00002500520F86EF4CFF7FFF3CFF6FF0800D6
:1005D000050EF5CFDBFF220E006E540E016E000EED
:1005E000026EFC0EDBCFE9FFFD0EDBCFEAFF060E4D
:1005F000E926000EEA22E9CF06F0EACF07F0030E63
:10060000DB500F010624E96E000E0720EA6EEFCFE3
:1006100003F0046A056A00500324F36E01500420BD
:10062000F46E02500520F86EF4CFF7FFF3CFF6FF1B
:100630000800020EF5CFDBFF1A0E006E540E016E9D
:10064000000E026E020EDBCF03F0046A056A005052
:100650000324F36E01500420F46E02500520F86E5E
:10066000F4CFF7FFF3CFF6FF0800040EF5CFDBFF62
:10067000020EDBCFE6FF030EDB50080DF350E55210
:10068000E724E76E060EE7CFDBFF040EDB1C026EED
:10069000FC0EDBCFE9FFFD0EDBCFEAFF060EE926FD
:1006A000000EEA22E9CF00F0EACF01F0030EDB50A2
:1006B0000F010024E96E000E0120EA6E0250EF16D1
:1006C000EF500CE1050EDB1C006EFC0EDBCFE9FFEA
:1006D000FD0EDBCFEAFFEE520050EF16060EEA6A7F
:1006E000DB34FE0BEA36E96EEE0EE926010EEA2255
:1006F000EECFDEFFEDCFDDFFDECFE9FFDDCFEAFF9E
:10070000140EEB6A150EEB6ADECFE9FFDDCFEAFFD0
:10071000120EEB6A130EEB6AFA0EDBCF1EF0FB0E25
:10072000DBCF1FF0FA0E1EC0DBFFFB0E1FC0DBFF8E
:10073000F90EDB1C006EDECFE9FFDDCFEAFF160EFF
:10074000E926000EEA220050EF16DECFE9FFDDCFEA
:10075000EAFF160EE926000EEA22EF500EE1050E22
:10076000DB5001017913030EDB50EA6A7A0FE96E60
:10077000010EEA22040EDB50EF12060EDB5000D011
:10078000006E070EE15C02E2E16AE552E16E0050A4
:10079000E552E5CFDAFFE7CFD9FF1200D9CFE6FF68
:1007A000DACFE6FFE1CFD9FFE2CFDAFFE6C1E9FF1A
:1007B000E7C1EAFF120EE926000EEA22FC0EDBCFAB
:1007C000EEFFFD0EDBCFEDFFE6C1E9FFE7C1EAFF7B
:1007D0001A0EEB50E81C006EE6C1E9FFE7C1EAFF24
:1007E000190EEB50EA6A7A0FE96E010EEA22005008
:1007F000EF16EF5009E1E6C1E9FFE7C1EAFF1B0E82
:10080000EB50E81C01017917E6C1E9FFE7C1EAFFF7
:100810001A0EEB50026EFC0EDBCFE9FFFD0EDBCFB4
:10082000EAFF060EE926000EEA22E9CF00F0EACF41
:1008300001F0E6C1E9FFE7C1EAFF190EEB500F0135
:100840000024E96E000E0120EA6E0250EF12E6C1AC
:10085000E9FFE7C1EAFF1B0EEB50006EFC0EDBCF99
:10086000E9FFFD0EDBCFEAFFEE520050EF12E5523A
:10087000E5CFDAFFE7CFD9FF1200D9CFE6FFDACF15
:10088000E6FFE1CFD9FFE2CFDAFFE6C1E9FFE7C13A
:10089000EAFF1A0EEB50E81C026EFC0EDBCFE9FFFC
:1008A000FD0EDBCFEAFF060EE926000EEA22E9CFB5
:1008B00000F0EACF01F0E6C1E9FFE7C1EAFF190E57
:1008C000EB500F010024E96E000E0120EA6E025089
:1008D000EF16EF5011E1E6C1E9FFE7C1EAFF1B0E99
:1008E000EB50E81C006EFC0EDBCFE9FFFD0EDBCF0A
:1008F000EAFFEE520050EF16E6C1E9FFE7C1EAFF5A
:10090000160EE926000EEA22EF6AE6C1E9FFE7C10A
:10091000EAFF120EEB6A130EEB6AE552E5CFDAFF3F
:10092000E7CFD9FF1200D9CFE6FFDACFE6FFE1CF5C
:10093000D9FFE2CFDAFFE652E652FC0EDBCFE9FF49
:10094000FD0EDBCFEAFFEE52EF6AFC0EDBCFE9FFD4
:10095000FD0EDBCFEAFF060EE926000EEA22E9CF04
:1009600000F0EACF01F000C0DEFF01C0DDFFDFCF05
:10097000E9FFDF2A010EDBCFEAFF01E3DB2AEF6AA2
:10098000DFCFE9FFDF2A010EDBCFEAFF01E3DB2A3D
:10099000EF6AE552E552E552E5CFDAFFE7CFD9FF3E
:1009A0001200D9CFE6FFDACFE6FFE1CFD9FFE2CFE1
:1009B000DAFF060EE12402E3E168E652E16ED95067
:1009C000020FE96EDACFEAFF000EEA22B60EEE6EF3
:1009D000000EED6ED950040FE96EDACFEAFF000E7B
:1009E000EA22BE0EEE6E000EED6EDE6ADD6ADECF2E
:1009F00000F0DDCF01F0026A036AD8900350000ACC
:100A000008E6090E005C000E0158000E0258000EA8
:100A1000035830E2020EDBCFE9FF030EDBCFEAFF23
:100A2000EF6A020EDBCFE9FF030EDBCFEAFF040E15
:100A3000E926000EEA22040EDBCFEEFF050EDBCF27
:100A4000EDFFD950020FE96E000EDA20EA6E080EB3
:100A5000EE26000EEF22D950040FE96E000EDA20C8
:100A6000EA6E080EEE26000EEF22DF2A010E01E3E9
:100A7000DB2ABDD7020EDBCFE9FF030EDBCFEAFF97
:100A8000EF6A020EDBCFE9FF030EDBCFEAFF040EB5
:100A9000EB6A050EEB6A0001B60EB46F000EB56F7F
:100AA000060EE15C02E2E16AE552E16EE552E5CF55
:100AB000DAFFE7CFD9FF120003016A6B6B6B6C6B37
:100AC0006D6B0101746B0101766B01017D6B01019E
:100AD0007C6B0001B06BB16BB26BB36B01017E6BD1
:100AE0007F6B806B816B01010B6B0C6B0D6B0E6B65
:100AF0000101076B086B096B0A6B01010F6B120098
:100B0000D9CFE6FFDACFE6FFE1CFD9FFE2CFDAFFB8
:100B1000E652E652E652E6520101796BD950020FD5
:100B2000E96EDACFEAFF000EEA227A0EEE6E010ECF
:100B3000ED6EDE6ADD6ADECF00F0DDCF01F0026A25
:100B4000036AD8900350000A08E6020E005C000E0B
:100B50000158000E0258000E03580FE2020EDBCFC0
:100B6000E9FFDB2A030EDBCFEAFF01E3DB2AEF6AB2
:100B7000DF2A010E01E3DB2ADED70101776B0101D9
:100B8000786B0101EA6BEB6B0101E66BE76B040E1E
:100B9000E15C02E2E16AE552E16EE552E5CFDAFF9F
:100BA000E7CFD9FF1200030EE66EE66A000EE66E8E
:100BB000E66A640EE66EE66AE66AE66AE50EE66EE8
:100BC000010EE66EE668E6680F0EE66E820EE66ED1
:100BD000010EE66E000EE66EE66A880EE66E0E0EFA
:100BE000E66E000EE66E54EC11F0006E140EE15C41
:100BF00002E2E16AE552E16E00501200030EE66E79
:100C0000E66A000EE66EE66A640EE66EE66AE66A7C
:100C1000E66A730EE66E010EE66EFE0EE66EE6689E
:100C20000E0EE66E100EE66E010EE66E000EE66E1D
:100C3000E66AE40EE66E0E0EE66E000EE66E54EC0C
:100C400011F0006E140EE15C02E2E16AE552E16E21
:100C500000501200D9CFE6FFDACFE6FFE1CFD9FF8F
:100C6000E2CFDAFFE652E652E652E652E6520101E0
:100C7000EC6BED6BDF6ADFCF00F0016A026A036A9A
:100C8000D8900350000A08E6100E005C000E0158D0
:100C9000000E0258000E03580DE2EA6ADF34FE0B24
:100CA000EA36E96EEE0EE926010EEA22EE6AED6AF8
:100CB000DF2AE1D7D950010FE96EDACFEAFF000E43
:100CC000EA220E0EEE6E020EED6ED950030FE96EA3
:100CD000DACFEAFF000EEA222B0EEE6E020EED6E68
:100CE000DF6ADFCF00F0016A026A036AD89003501E
:100CF000000A08E60B0E005C000E0158000E0258B8
:100D0000000E035826E2010EDBCFE9FF020EDBCF17
:100D1000EAFF0E0EE926000EEA22030EDBCFEEFFFD
:100D2000040EDBCFEDFFD950010FE96E000EDA2083
:100D3000EA6E1D0EEE26000EEF22D950030FE96E6B
:100D4000000EDA20EA6E1D0EEE26000EEF22DF2ADC
:100D5000C8D7010EDBCFE9FF020EDBCFEAFF0E0E94
:100D6000EB6A0F0EEB6A01010E0EE86F020EE96FDF
:100D7000050EE15C02E2E16AE552E16EE552E5CF83
:100D8000DAFFE7CFD9FF1200D9CFE6FFDACFE6FFCF
:100D9000E1CFD9FFE2CFDAFFE652E652C00EF214FD
:100DA000DF6E800ED0143F09F2160101745162E12A
:100DB000010176515FE1220E006E540E016E000EAD
:100DC000026E79C103F0046A056A00500324F36ED1
:100DD00001500420F46E02500520F86EF4CFF7FFA6
:100DE000F3CFF6FF0800010EF5CFDBFF220E016EF8
:100DF000540E026E000E036E010EDB50EA6A7A0F8B
:100E0000E96E010EEA22EFCF04F0056A066A01508E
:100E10000424F36E02500520F46E03500620F86E91
:100E2000F4CFF7FFF3CFF6FF0800F5CF00F0010E87
:100E3000DB50080DF35000240101786F0101775158
:100E40000101785D17E001017851E96EEA6AD890F6
:100E5000E936EA36EE0EE926010EEA22EECFEAF195
:100E6000EDCFEBF10001B02B000EB123B223B32381
:100E700054EC26F0DF50F212E552E552E552E5CF90
:100E8000DAFFE7CFD9FF1200D9CFE6FFDACFE6FFCE
:100E9000E1CFD9FFE2CFDAFFE652FC0EDBCF1EF046
:100EA000FD0EDBCF1FF0FC0E1EC0DBFFFD0E1FC0D2
:100EB000DBFFC00EF214DF6E800ED0143F09F21675
:100EC00001017E2B000E7F2380238123DF50F2124D
:100ED0000FEC26F0EED7E552E552E5CFDAFFE7CF8B
:100EE000D9FF1200D9CFE6FFDACFE6FFE1CFD9FF75
:100EF000E2CFDAFF0A0EE12402E3E168E652E16E96
:100F0000FC0EDBCF1EF0FD0EDBCF1FF0FC0E1EC073
:100F1000DBFFFD0E1FC0DBFF01010F5108E1C80E12
:100F2000E66EE66A76EC17F0E552E552F5D707C1B2
:100F30001CF008C11DF009C11EF00AC11FF0640EAB
:100F4000216E226A236A246AE7EC2DF0050E1CC08C
:100F5000DBFF060E1DC0DBFF070E1EC0DBFF080E09
:100F60001FC0DBFFC00EF214DF6E800ED0143F09ED
:100F7000F2167EC10BF17FC10CF180C10DF181C170
:100F80000EF1010E7EC1DBFF020E7FC1DBFF030EFF
:100F900080C1DBFF040E81C1DBFF01017E6B7F6B33
:100FA000806B816BDF50F212D950050FE96E000E95
:100FB000DA20EA6ED880000EEE54000EEE54000ED9
:100FC000EE54000EEE5442E2640E046E056A066AA8
:100FD000076A010EDBCF08F0020EDBCF09F0030E2B
:100FE000DBCF0AF0040EDBCF0BF008C01CF009C009
:100FF0001DF00AC01EF00BC01FF0050EDBCF21F064
:10100000060EDBCF22F0070EDBCF23F0080EDBCF7E
:1010100024F0E7EC2DF01C50045C006E1D500558C8
:10102000016E1E500658026E1F500758036E090EBF
:1010300000C0DBFF090EDBCF00F0003404E2090E34
:10104000DBCF06F102D00101066B1DD00101066B5A
:1010500007C11CF008C11DF009C11EF00AC11FF034
:10106000640E216E226A236A246AE7EC2DF0050ED5
:101070001CC0DBFF060E1DC0DBFF070E1EC0DBFF22
:10108000080E1FC0DBFFFFEC25F0640EE66EE66A7B
:1010900076EC17F0E552E55265D70A0EE15C02E204
:1010A000E16AE552E16EE552E5CFDAFFE7CFD9FF1D
:1010B0001200D9CFE6FFDACFE6FFE1CFD9FFE2CFCA
:1010C000DAFFE652E652E652C00EF214DF6E800EF0
:1010D000D0143F09F216010EE8C1DBFF020EE9C190
:1010E000DBFFD950010FE96E000EDA20EA6EEE50F8
:1010F000ED1001E1B9D1010EDBCFE9FF020EDBCF2C
:10110000EAFF0E0EE926000EEA22EECFE8F1EDCF5F
:10111000E9F1DF50F212010EDBCFE9FF020EDBCF67
:10112000EAFFFB0EDBCFEEFFFC0EDBCFEDFF010E87
:10113000DBCFE9FF020EDBCFEAFF170EE926000E38
:10114000EA22FD0EDBCFEFFF010EDBCFE9FF020E3F
:10115000DBCFEAFF160EE926000EEA22EF6A010E47
:10116000DBCFE9FF020EDBCFEAFF140EEB6A150EB0
:10117000EB6A010EDBCFE9FF020EDBCFEAFF020EC6
:10118000E926000EEA22F10EDBCFEEFFF20EDBCFF6
:10119000EDFF010EDBCFE9FF020EDBCFEAFF060E0B
:1011A000E926000EEA22F30EDBCFEEFFF40EDBCFD2
:1011B000EEFFF50EDBCFEEFFF60EDBCFEEFF010EFE
:1011C000DBCFE9FF020EDBCFEAFF040EE926000EBB
:1011D000EA22F90EDBCFEEFFFA0EDBCFEDFF010EB8
:1011E000DBCFE9FF020EDBCFEAFF0A0EE926000E95
:1011F000EA22EF0EDBCFEEFFF00EDBCFEDFF010EAC
:10120000DBCFE9FF020EDBCFEAFF0C0EE926000E72
:10121000EA22F70EDBCFEEFFF80EDBCFEDFF010E7B
:10122000DBCFE9FF020EDBCFEAFF1C0EE926000E42
:10123000EA22EF6AFD0EDB40E840E8401F0BE66E55
:10124000010EDBCFE9FF020EDBCFEAFF190EE92624
:10125000000EEA22E552E750EF6E1A0E006E540EB1
:10126000016E000E026E010EDBCFE9FF020EDBCF36
:10127000EAFF190EE926000EEA22EFCF03F0046A16
:10128000056A00500324F36E01500420F46E0250EE
:101290000520F86EF4CFF7FFF3CFF6FF0800F55006
:1012A000E66E010EDBCFE9FF020EDBCFEAFF1B0E7D
:1012B000E926000EEA22E552E750EF6EFD0EDB5004
:1012C000070BE66E010EDBCFE9FF020EDBCFEAFF74
:1012D000180EE926000EEA22E552E750EF6E1A0ECC
:1012E000006E540E016E000E026E010EDBCFE9FFA0
:1012F000020EDBCFEAFF180EE926000EEA22EFCF3E
:1013000003F0046A056A00500324F36E01500420C0
:10131000F46E02500520F86EF4CFF7FFF3CFF6FF1E
:101320000800F550E66E010EDBCFE9FF020EDBCFC1
:10133000EAFF1A0EE926000EEA22E552E750EF6EA8
:10134000010EDBCFE9FF020EDBCFEAFF120EEB6AE4
:10135000130EEB6A010EDBCFE6FF020EDBCFE6FFDA
:1013600001EC26F0E552E552010EDBCFE6FF020E5E
:10137000DBCFE6FFE1EC25F0E552E552C00EF214BA
:10138000DF6E800ED0143F09F216FD0EEA6ADB34E0
:10139000FE0BEA36E96EEE0EE926010EEA22010E98
:1013A000DBCFEEFF020EDBCFEDFF010EDBCFE9FF5F
:1013B000020EDBCFEAFF0E0EE926000EEA22ECC198
:1013C000EEFFEDC1EDFF010EDBCFE9FF020EDBCF3B
:1013D000EAFF100EEB6A110EEB6A0101EC51ED1100
:1013E0000EE0ECC1E9FFEDC1EAFF100EE926000EA8
:1013F000EA22010EDBCFEEFF020EDBCFEDFF010E86
:10140000DBCFECF1020EDBCFEDF1010EDBCFE9FF1C
:10141000020EDBCFEAFF1B0EE926000EEA22EF5098
:1014200001017913010EDBCFE9FF020EDBCFEAFFEA
:101430001A0EE926000EEA22EFCF00F0010EDBCFF4
:10144000E9FF020EDBCFEAFF190EE926000EEA22C1
:10145000EF50EA6A7A0FE96E010EEA220050EF12AD
:10146000DF50F212000E04D0DF50F212460E00D010
:10147000E552E552E552E552E5CFDAFFE7CFD9FF75
:101480001200D9CFE6FFDACFE6FFE1CFD9FFE2CFF6
:10149000DAFFE652E652E652D950FC0FE96EFF0E33
:1014A000DA20EA6EEE50ED1003E1F36AF46A49D0F7
:1014B000FC0EDBCFE9FFFD0EDBCFEAFFEF500308A8
:1014C00003E0F36AF46A3DD0C00EF214DF6E800EC2
:1014D000D0143F09F216FC0EDBCFE9FFFD0EDBCF87
:1014E000EAFF020EE926000EEA22010EEECFDBFF34
:1014F000020EEDCFDBFFD950010FE96E000EDA20AE
:10150000EA6E000ED880EE54000EED540DE2FC0E93
:10151000DBCFE9FFFD0EDBCFEAFF020EE926000E6E
:10152000EA22EE06000EEF5ADF50F212010EDBCF78
:1015300000F0020EDBCF01F000C0F3FF01C0F4FFAA
:1015400000D0E552E552E552E552E5CFDAFFE7CFAC
:10155000D9FF1200D9CFE6FFDACFE6FFE1CFD9FFFE
:10156000E2CFDAFFE652E652E6520101745100087A
:1015700003E2F36AF46A5FD0C00EF214DF6E800EED
:10158000D0143F09F216010EB4C0DBFF020EB5C045
:10159000DBFF0001B451B5110CE0B4C0E9FFB5C0E8
:1015A000EAFF040EE926000EEA22EECFB4F0EDCFFA
:1015B000B5F0DF50F212D950010FE96E000EDA20BB
:1015C000EA6EEE50ED102CE0010EDBCFE9FF020ECB
:1015D000DBCFEAFF030EEF6E010EDBCFE9FF020E59
:1015E000DBCFEAFF020EE926000EEA22FC0EDBCF7B
:1015F000EEFFFD0EDBCFEDFF010EDBCFE9FF020EAC
:10160000DBCFEAFF040EEB6A050EEB6A010EDBCFBF
:10161000E6FF020EDBCFE6FF93EC04F0E552E55265
:10162000010EDBCF00F0020EDBCF01F000C0F3FFB4
:1016300001C0F4FF00D0E552E552E552E552E5CF96
:10164000DAFFE7CFD9FF1200D9CFE6FFDACFE6FF06
:10165000E1CFD9FFE2CFDAFFE652E6520101745141
:10166000000813E2F90EDBCFE9FFFA0EDBCFEAFF49
:101670008C0EEF6EFC0EDBCF00F0FD0EDBCF01F029
:1016800000C0F3FF01C0F4FFF5D0D950FC0FE96EA4
:10169000FF0EDA20EA6EEE50ED1013E1F90EDBCF0B
:1016A000E9FFFA0EDBCFEAFF040EEF6EFC0EDBCF94
:1016B00000F0FD0EDBCF01F000C0F3FF01C0F4FF2E
:1016C000D9D0FC0EDBCFE9FFFD0EDBCFEAFFEF50F8
:1016D000030813E0F90EDBCFE9FFFA0EDBCFEAFFD8
:1016E000010EEF6EFC0EDBCF00F0FD0EDBCF01F044
:1016F00000C0F3FF01C0F4FFBDD0C00EF214DF6ED6
:10170000800ED0143F09F216FC0EDBCFE9FFFD0E70
:10171000DBCFEAFFEE52EF5004E0DE52010EDD6E49
:1017200002D0010EDB6AFB0EDB50010A43E0010A26
:1017300001E08BD0010EDB5028E1FC0EDBCFE9FF8E
:10174000FD0EDBCFEAFFEF6AFC0EDBCFE9FFFD0EFB
:10175000DBCFEAFF040EE926000EEA22B4C0EEFF5A
:10176000B5C0EDFFFC0EDBCFB4F0FD0EDBCFB5F066
:10177000DF50F212F90EDBCFE9FFFA0EDBCFEAFF02
:10178000EF6AF36AF46A76D015D0DF50F212F90EE0
:10179000DBCFE9FFFA0EDBCFEAFF080EEF6EFC0E9F
:1017A000DBCF00F0FD0EDBCF01F000C0F3FF01C086
:1017B000F4FF60D0FC0EDBCFE9FFFD0EDBCFEAFFCC
:1017C000EE52EF5016E0010EE66E000EE66EE66A8F
:1017D000FC0EDBCFE6FFFD0EDBCFE6FF9FEC02F059
:1017E000006E050EE15C02E2E16AE552E16E005036
:1017F000E1D7FC0EDBCFE9FFFD0EDBCFEAFFEF6A9E
:10180000FC0EDBCFE9FFFD0EDBCFEAFF040EE9267D
:10181000000EEA22B4C0EEFFB5C0EDFFFC0EDBCF38
:10182000B4F0FD0EDBCFB5F0DF50F212010EDB0499
:1018300002E1C4EC06F0F90EDBCFE9FFFA0EDBCFD4
:10184000EAFFEF6AF36AF46A15D0DF50F212F90E7C
:10185000DBCFE9FFFA0EDBCFEAFF070EEF6EFC0EDF
:10186000DBCF00F0FD0EDBCF01F000C0F3FF01C0C5
:10187000F4FF00D0E552E552E552E5CFDAFFE7CFBD
:10188000D9FF1200D9CFE6FFDACFE6FFE1CFD9FFCB
:10189000E2CFDAFFE65201017451000809E2F80EC6
:1018A000DBCFE9FFF90EDBCFEAFF020EEF6EACD023
:1018B000D950FC0FE96EFF0EDA20EA6EEE50ED1003
:1018C00009E1F80EDBCFE9FFF90EDBCFEAFF040EEA
:1018D000EF6E9AD0FC0EDBCFE9FFFD0EDBCFEAFF07
:1018E000EF50030809E0F80EDBCFE9FFF90EDBCF7C
:1018F000EAFF010EEF6E88D0C00EF214DF6E800E8C
:10190000D0143F09F216FC0EDBCFE9FFFD0EDBCF52
:10191000EAFF020EE926000EEA22000ED880EE54FD
:10192000000EED5417E2FC0EDBCFE9FFFD0EDBCF1E
:10193000EAFF020EE926000EEA22EE06000EEF5A3A
:10194000DF50F212F80EDBCFE9FFF90EDBCFEAFF32
:10195000EF6A5AD0E6C1E9FFE7C1EAFF160EE926B1
:10196000000EEA22EF80E6C1E9FFE7C1EAFF140EAC
:10197000E926000EEA22FA0EDBCFEEFFFB0EDBCFEC
:10198000EDFFFC0EDBCFE6FFFD0EDBCFE6FFCEEC7E
:1019900003F0E552E552DF50F212C4EC06F0C00E3F
:1019A000F214DF6E800ED0143F09F216E6C1E9FF93
:1019B000E7C1EAFF160EEB50010B15E0FC0EDBCF82
:1019C000E6FFFD0EDBCFE6FF3DEC04F0E552E5520D
:1019D000DF50F212F80EDBCFE9FFF90EDBCFEAFFA2
:1019E0000A0EEF6E11D0E6C1E9FFE7C1EAFF120E61
:1019F000EB6A130EEB6ADF50F212F80EDBCFE9FF51
:101A0000F90EDBCFEAFFEF6AE552E552E5CFDAFFE8
:101A1000E7CFD9FF1200D9CFE6FFDACFE6FFE1CF5B
:101A2000D9FFE2CFDAFFE652D950FC0FE96EFF0E84
:101A3000DA20EA6EEE50ED1002E1040E65D0FC0EE5
:101A4000DBCFE9FFFD0EDBCFEAFFEF50030802E03A
:101A5000010E5AD0C00EF214DF6E800ED0143F0972
:101A6000F216FC0EDBCFE9FFFD0EDBCFEAFFEE52F4
:101A7000EF501BE0010EE66E000EE66EE66AFC0E0D
:101A8000DBCFE6FFFD0EDBCFE6FF9FEC02F0006E42
:101A9000050EE15C02E2E16AE552E16E0050DF50C2
:101AA000F212C4EC06F0000E2FD0FC0EDBCFE9FFE3
:101AB000FD0EDBCFEAFF020EE926000EEA22EECF92
:101AC00000F0EFCF01F0026AD8900250000A06E65B
:101AD000FF0E005CFF0E0158000E025811E2FC0ED2
:101AE000DBCFE9FFFD0EDBCFEAFF020EE926000E99
:101AF000EA22EE2A000EEF22DF50F212000E04D08E
:101B0000DF50F212320E00D0E552E552E5CFDAFF97
:101B1000E7CFD9FF1200D9CFE6FFDACFE6FFE1CF5A
:101B2000D9FFE2CFDAFFE652E652E652E652E6523B
:101B3000D950FC0FE96EFF0EDA20EA6EEE50ED1080
:101B400002E1040E9AD0FC0EDBCFE9FFFD0EDBCFE5
:101B5000EAFFEF50030802E0010E8FD0C00EF2142E
:101B6000DF6E800ED0143F09F216FC0EDBCFE9FFCA
:101B7000FD0EDBCFEAFFEE52EF50E66EFA0EDBCF42
:101B8000E9FFFB0EDBCFEAFF040EE926000EEA2296
:101B9000E552E750EF6EFC0EDBCFE9FFFD0EDBCF29
:101BA000EAFF060EE926000EEA22E9CF00F0EACFAE
:101BB00001F0010E00C0DBFF020E01C0DBFFFA0ED8
:101BC000DBCFE9FFFB0EDBCFEAFF020EE926000EBA
:101BD000EA22E9CF00F0EACF01F0030E00C0DBFFFC
:101BE000040E01C0DBFF010EDBCFE9FFDB2A020E92
:101BF000DBCFEAFF01E3DB2AEF50E66E030EDBCF1B
:101C0000E9FFDB2A040EDBCFEAFF01E3DB2AE55222
:101C1000E750EF6E010EDBCFE9FFDB2A020EDBCFD0
:101C2000EAFF01E3DB2AEF50E66E030EDBCFE9FFAC
:101C3000DB2A040EDBCFEAFF01E3DB2AE552E750A3
:101C4000EF6EFC0EDBCFE9FFFD0EDBCFEAFF020EED
:101C5000E926000EEA22EECF00F0EFCF01F0FA0EF7
:101C6000DBCFE9FFFB0EDBCFEAFF00C0EEFF01C0D8
:101C7000EDFFDF50F212000E00D0006E050EE15CA9
:101C800002E2E16AE552E16E0050E552E5CFDAFF8B
:101C9000E7CFD9FF1200D9CFE6FFDACFE6FFE1CFD9
:101CA000D9FFE2CFDAFF090EE12402E3E168E65250
:101CB000E16EFD0EDBCF00F0016A026A036AD89084
:101CC0000350000A08E60F0E005C000E0158000EDB
:101CD0000258000E035804E3FD0EDB50FF0813E129
:101CE000FC0EDBCF04F0056A066A076AD89007503D
:101CF000000A08E60F0E045C000E0558000E065898
:101D0000000E075802E32A0EEED1C00EF214DF6E69
:101D1000800ED0143F09F216FC0EEA6ADB34FE0B8B
:101D2000EA36E96EEE0EE926010EEA22EE50ED10DB
:101D300005E0DF50F212280ED6D1D5D1FC0EEA6AAA
:101D4000DB34FE0BEA36E96EEE0EE926010EEA22DE
:101D5000010EEE6EED6ADF50F212FC0EDB40E84041
:101D6000E8401F0BE76E060EE7CFDBFF1A0E006E92
:101D7000540E016E000E026E060EDBCF03F0046AF5
:101D8000056A00500324F36E01500420F46E0250E3
:101D90000520F86EF4CFF7FFF3CFF6FF0800080E2A
:101DA000F5CFDBFFFC0EDB50070BE76E050EE7CF30
:101DB000DBFF1A0E006E540E016E000E026E050E51
:101DC000DBCF03F0046A056A00500324F36E015070
:101DD0000420F46E02500520F86EF4CFF7FFF3CF25
:101DE000F6FF0800070EF5CFDBFFC00EF214DF6E22
:101DF000800ED0143F09F216FD0EDB50FF080AE1F9
:101E0000E6C1E9FFE7C1EAFF170EEB50E76EFD0EF2
:101E1000E7CFDBFFFD0EEA6ADB34FE0BEA36E96E44
:101E2000EE0EE926010EEA22030EEECFDBFF040ED2
:101E3000EDCFDBFFD950030FE96E000EDA20EA6E1A
:101E4000EE50ED1001E13FD1FD0EEA6ADB34FE0BEE
:101E5000EA36E96EEE0EE926010EEA22EE6AED6A36
:101E6000030EDBCFE9FF040EDBCFEAFF1A0EE926F3
:101E7000000EEA22EFCF00F0030EDBCFE9FF040EE5
:101E8000DBCFEAFF190EE926000EEA22EF50EA6ADC
:101E90007A0FE96E010EEA22EF5000143CE0030EC7
:101EA000DBCFE9FF040EDBCFEAFF1A0EE926000EB6
:101EB000EA22EF1C006E030EDBCFE9FF040EDBCF3E
:101EC000EAFF190EE926000EEA22EF50EA6A7A0FBD
:101ED000E96E010EEA220050EF16EF500DE1030EFD
:101EE000DBCFE9FF040EDBCFEAFF1B0EE926000E75
:101EF000EA22EF1C01017917080EDB50010179136A
:101F0000060EDB50EA6A7A0FE96E010EEA22070E2E
:101F1000DB50EF1280D0030EDBCFE9FF040EDBCFE6
:101F2000EAFF120EE926000EEA22010EEECFDBFFD9
:101F3000020EEDCFDBFFD950010FE96E000EDA2063
:101F4000EA6EEE50ED1067E0030EDBCFE9FF040E02
:101F5000DBCFEAFF1A0EE926000EEA22EF1C026E22
:101F6000010EDBCFE9FF020EDBCFEAFF060EE9260A
:101F7000000EEA22E9CF00F0EACF01F0030EDBCF3A
:101F8000E9FF040EDBCFEAFF190EE926000EEA2274
:101F9000EF500F010024E96E000E0120EA6E02509E
:101FA000EF16EF5015E1030EDBCFE9FF040EDBCF98
:101FB000EAFF1B0EE926000EEA22EF1C006E010E5E
:101FC000DBCFE9FF020EDBCFEAFFEE520050EF1647
:101FD000010EDBCFE9FF020EDBCFEAFFEE52080E67
:101FE000DB50EF12010EDBCFE9FF020EDBCFEAFF81
:101FF000060EE926000EEA22E9CF00F0EACF01F052
:10200000060EDB500F010024E96E000E0120EA6E7F
:10201000070EDB50EF12FC0EEA6ADB34FE0BEA36E9
:10202000E96EEE0EE926010EEA22030EDBCFEEFF8B
:10203000040EDBCFEDFF030EDBCFE9FF040EDBCF99
:10204000EAFF170EE926000EEA22FC0EDBCFEFFFB7
:10205000030EDBCFE9FF040EDBCFEAFF190EE92602
:10206000000EEA22060EDBCFEFFF030EDBCFE9FF07
:10207000040EDBCFEAFF180EE926000EEA22050E59
:10208000DBCFEFFF030EDBCFE9FF040EDBCFEAFF70
:102090001B0EE926000EEA22080EDBCFEFFF030E2F
:1020A000DBCFE9FF040EDBCFEAFF1A0EE926000EB4
:1020B000EA22070EDBCFEFFFDF50F212C4EC06F08E
:1020C000000E11D010D0FC0EEA6ADB34FE0BEA36AB
:1020D000E96EEE0EE926010EEA22EE6AED6ADF50A5
:1020E000F212290E00D0006E090EE15C02E2E16AF4
:1020F000E552E16E0050E552E5CFDAFFE7CFD9FFB8
:102100001200D9CFE6FFDACFE6FFE1CFD9FFE2CF69
:10211000DAFFE652E652E652E652F60EDBCF00F068
:10212000016A026A036A0334000E031809E6D880C4
:102130000F0E0054000E0154000E0254000E035402
:1021400002E22A0EA3D0C00EF214DF6E800ED0146D
:102150003F09F216F60EEA6ADB34FE0BEA36E96E48
:10216000EE0EE926010EEA22EE50ED1001E08AD0D3
:10217000F60EEA6ADB34FE0BEA36E96EEE0EE9266D
:10218000010EEA22010EEE6EED6ADF50F212000E31
:10219000E66EE66AF70EDBCFE6FFF80EDBCFE6FF72
:1021A000F90EDBCFE6FFFA0EDBCFE6FFFB0EDBCF4F
:1021B000E6FFFC0EDBCFE6FFFD0EDBCFE6FFD7EC44
:1021C00024F0006E090EE15C02E2E16AE552E16E84
:1021D0000050DE52F3CFDEFFF4CFDDFFDD52000E04
:1021E000E66EE66A000EE66EE66AE66AE66AE66AA9
:1021F000E66A000EE66EE66A000EE66EE66A010E1C
:10220000DBCFE6FF020EDBCFE6FFF60EDBCFE6FF0D
:1022100059EC08F0006E0F0EE15C02E2E16AE55253
:10222000E16E0050E76E030EE7CFDBFF030EDB50DD
:1022300011E1C00EF214DF6E800ED0143F09F216C9
:1022400001017D2BDF50F21201017C0502E1C4EC9B
:1022500006F015D0C00EF214DF6E800ED0143F09C8
:10226000F216F60EEA6ADB34FE0BEA36E96EEE0E83
:10227000E926010EEA22EE6AED6ADF50F212030E41
:10228000DB5004D0DF50F212280E00D0006E040E96
:10229000E15C02E2E16AE552E16E0050E552E5CF11
:1022A000DAFFE7CFD9FF1200D9CFE6FFDACFE6FF9A
:1022B000E1CFD9FFE2CFDAFFE652E652E652E6522C
:1022C000F60EDBCF00F0016A026A036A0334000EE7
:1022D000031809E6D8800F0E0054000E0154000EBA
:1022E0000254000E035402E22A0EDBD0C00EF21498
:1022F000DF6E800ED0143F09F216F60EEA6ADB3468
:10230000FE0BEA36E96EEE0EE926010EEA22EE50E9
:10231000ED1001E0C2D0F60EEA6ADB34FE0BEA36BD
:10232000E96EEE0EE926010EEA22010EEE6EED6A6E
:10233000DF50F212EA0EDB50010B04E1EA0EDB5033
:10234000020B17E0EE0EDBCFE6FFEF0EDBCFE6FF72
:10235000E66AF70EDBCFE6FFF80EDBCFE6FFACEC6C
:102360002BF0006E050EE15C02E2E16AE552E16EDF
:102370000050EA0EDBCFE6FFEB0EDBCFE6FFF70EF9
:10238000DBCFE6FFF80EDBCFE6FFF90EDBCFE6FF93
:10239000FA0EDBCFE6FFFB0EDBCFE6FFFC0EDBCF5A
:1023A000E6FFFD0EDBCFE6FFD7EC24F0006E090E52
:1023B000E15C02E2E16AE552E16E0050DE52F3CFE9
:1023C000DEFFF4CFDDFFDD52EA0EDBCFE6FFEB0EE2
:1023D000DBCFE6FFEC0EDBCFE6FFED0EDBCFE6FF5B
:1023E000D950EE0FE96EFF0EDA20EA6EEECFE6FF6F
:1023F000EECFE6FFEECFE6FFEFCFE6FFF40EDBCF4A
:10240000E6FFF50EDBCFE6FFF20EDBCFE6FFF30EC5
:10241000DBCFE6FF010EDBCFE6FF020EDBCFE6FFF0
:10242000F60EDBCFE6FF59EC08F0006E0F0EE15C14
:1024300002E2E16AE552E16E0050E76E030EE7CF7B
:10244000DBFF030EDB5011E1C00EF214DF6E800ED5
:10245000D0143F09F21601017D2BDF50F212010169
:102460007C0502E1C4EC06F015D0C00EF214DF6E5C
:10247000800ED0143F09F216F60EEA6ADB34FE0B2A
:10248000EA36E96EEE0EE926010EEA22EE6AED6A00
:10249000DF50F212030EDB5004D0DF50F212280E90
:1024A00000D0006E040EE15C02E2E16AE552E16EEA
:1024B0000050E552E5CFDAFFE7CFD9FF1200D9CFC0
:1024C000E6FFDACFE6FFE1CFD9FFE2CFDAFF060E73
:1024D000E12402E3E168E652E16E01017451000873
:1024E00002E23F0EC5D1FD0EDBCF00F0016A026AA9
:1024F000036A0F0E001805E1015003E1025001E1EB
:10250000035002E13D0EB4D1FD0EDBCF00F0016AB5
:10251000026A036AD8900350000A08E60F0E005CB6
:10252000000E0158000E0258000E035806E3FD0E7F
:10253000DB50FF0802E02A0E9BD1C00EF214DF6EC2
:10254000800ED0143F09F216FD0EDB50FF080AE1A1
:10255000E6C1E9FFE7C1EAFF170EEB50E76EFD0E9B
:10256000E7CFDBFFFD0EEA6ADB34FE0BEA36E96EED
:10257000EE0EE926010EEA22030EEECFDBFF040E7B
:10258000EDCFDBFFD950030FE96E000EDA20EA6EC3
:10259000EE50ED1001E168D1030EDBCFE9FF040E30
:1025A000DBCFEAFF1A0EE926000EEA22EF1C006ECE
:1025B000030EDBCFE9FF040EDBCFEAFF190EE9269D
:1025C000000EEA22EF50EA6A7A0FE96E010EEA2263
:1025D0000050EF16EF500DE1030EDBCFE9FF040EC4
:1025E000DBCFEAFF1B0EE926000EEA22EF1C0101F9
:1025F0007917030EDBCFE9FF040EDBCFEAFF120EE3
:10260000E926000EEA22010EEECFDBFF020EEDCF2F
:10261000DBFFD950010FE96E000EDA20EA6EEE50B2
:10262000ED1044E0030EDBCFE9FF040EDBCFEAFF41
:102630001A0EE926000EEA22EF1C026E010EDBCF15
:10264000E9FF020EDBCFEAFF060EE926000EEA22C2
:10265000E9CF00F0EACF01F0030EDBCFE9FF040E73
:10266000DBCFEAFF190EE926000EEA22EF500F0138
:102670000024E96E000E0120EA6E0250EF16EF50C2
:1026800015E1030EDBCFE9FF040EDBCFEAFF1B0EE3
:10269000E926000EEA22EF1C006E010EDBCFE9FFF7
:1026A000020EDBCFEAFFEE520050EF16030EDBCF37
:1026B000E9FF040EDBCFEAFF140EEB6A150EEB6A9E
:1026C000030EDBCFE9FF040EDBCFEAFF160EE9268F
:1026D000000EEA22EF6A01017651006E016AD8907D
:1026E000015004E6FF0E005C000E015802E20101F9
:1026F000762BDF50F2129EEC02F0C00EF214DF6E69
:10270000800ED0143F09F21601017651000802E252
:1027100001017607030EDBCFE6FF040EDBCFE6FFF9
:10272000EFEC25F0E552E55201017D07FD0EEA6A66
:10273000DB34FE0BEA36E96EEE0EE926010EEA22E4
:10274000EE6AED6A030EDBCFE9FF040EDBCFEAFF92
:10275000100EE926000EEA22EE50ED1023E1030EE2
:10276000DBCFE9FF040EDBCFEAFF0E0EE926000EF9
:10277000EA22EE50EFCFEAFFE96E100EE926000ED6
:10278000EA22EE6AED6A030EDBCFE9FF040EDBCF2F
:10279000EAFF0E0EE926000EEA22EECFECF1EDCFB5
:1027A000EDF148D0030EDBCFE9FF040EDBCFEAFFEB
:1027B0000E0EE926000EEA22EECF00F0EFCF01F078
:1027C000030EDBCFE9FF040EDBCFEAFF100EE92694
:1027D000000EEA22EE50EFCFEAFFE96E0E0EE92678
:1027E000000EEA2200C0EEFF01C0EDFF030EDBCFBA
:1027F000E9FF040EDBCFEAFF100EE926000EEA2205
:10280000EECF00F0EFCF01F0030EDBCFE9FF040EB7
:10281000DBCFEAFF0E0EE926000EEA22EE50EFCFE4
:10282000EAFFE96E100EE926000EEA2200C0EEFF74
:1028300001C0EDFF030EDBCFE9FF040EDBCFEAFFA3
:102840000E0EE926000EEA22E8C1EEFFE9C1EDFF17
:10285000030EDBCFE8F1040EDBCFE9F1DF50F2121B
:10286000C4EC06F0000E04D0DF50F2123C0E00D093
:10287000006E060EE15C02E2E16AE552E16E005094
:10288000E552E5CFDAFFE7CFD9FF1200D9CFE6FF57
:10289000DACFE6FFE1CFD9FFE2CFDAFFE652E65228
:1028A000E652E652E652FD0EDBCF00F0016A026A04
:1028B000036A0F0E001805E1015003E1025001E127
:1028C000035002E13D0E6CD0FD0EDBCF00F0016A3B
:1028D000026A036AD8900350000A08E60F0E005CF3
:1028E000000E0158000E0258000E035806E3FD0EBC
:1028F000DB50FF0802E02A0E53D0FD0EDB50FF082C
:1029000016E1C00EF214DF6E800ED0143F09F216ED
:10291000E6C1E9FFE7C1EAFF1C0EEB50E76E010ECE
:10292000E7CFDBFFDF50F212010EDB5039D0C00ED3
:10293000F214DF6E800ED0143F09F216FD0EEA6A23
:10294000DB34FE0BEA36E96EEE0EE926010EEA22D2
:10295000030EEECFDBFF040EEDCFDBFFD950030FEC
:10296000E96E000EDA20EA6EEE50ED100FE0030E75
:10297000DBCFE9FF040EDBCFEAFF1C0EE926000ED9
:10298000EA223E0EEF6E020EDB6A05D00B0EF36EEE
:10299000020EF3CFDBFFDF50F212020EDB5000D04D
:1029A000006E050EE15C02E2E16AE552E16E005064
:1029B000E552E5CFDAFFE7CFD9FF1200D9CFE6FF26
:1029C000DACFE6FFE1CFD9FFE2CFDAFFE652E652F7
:1029D000E652FD0EDBCF00F0016A026A036AD8906E
:1029E0000350000A08E60F0E005C000E0158000EAE
:1029F0000258000E035802E32A0E83D0C00EF214D0
:102A0000DF6E800ED0143F09F216FD0EEA6ADB3449
:102A1000FE0BEA36E96EEE0EE926010EEA22010E01
:102A2000EECFDBFF020EEDCFDBFFD950010FE96ED9
:102A3000000EDA20EA6EEE50ED1004E1DF50F212E3
:102A4000640E5FD0010EDBCFE9FF020EDBCFEAFFA1
:102A5000160EE926000EEA22EF50080B4EE0010E9A
:102A6000DBCFE9FF020EDBCFEAFF160EE926000EF0
:102A7000EA22EF96EF503DE1010EDBCFE9FF020EB7
:102A8000DBCFEAFF140EE926000EEA22EE50ED102D
:102A900030E1010EDBCFE9FF020EDBCFEAFF1B0EB8
:102AA000E926000EEA22EF5001017913010EDBCF77
:102AB000E9FF020EDBCFEAFF1A0EE926000EEA223A
:102AC000EFCF00F0010EDBCFE9FF020EDBCFEAFF14
:102AD000190EE926000EEA22EF50EA6A7A0FE96E33
:102AE000010EEA220050EF12DF50F212C4EC06F0A1
:102AF00002D0DF50F212000E04D0DF50F212650E49
:102B000000D0E552E552E552E552E5CFDAFFE7CFD6
:102B1000D9FF1200D9CFE6FFDACFE6FFE1CFD9FF28
:102B2000E2CFDAFF0D0EE12402E3E168E652E16E46
:102B3000FD0EDBCF00F0016A026A036A0334000E67
:102B4000031809E6D8800F0E0054000E0154000E41
:102B50000254000E035406E2FD0EDB50FF0802E0B3
:102B60002A0EEAD0FB0EDBCFE9FFFC0EDBCFEAFF3B
:102B7000EE6AEE6AEE6AEE6AFB0EDBCFE9FFFC0E50
:102B8000DBCFEAFF040EE926000EEA22EE6AEE6AC7
:102B9000EE6AEE6AC00EF214DF6E800ED0143F09AA
:102BA000F216FD0EDB50FF080AE1E6C1E9FFE7C1BE
:102BB000EAFF170EEB50E76EFD0EE7CFDBFFFD0ED1
:102BC000EA6ADB34FE0BEA36E96EEE0EE926010E08
:102BD000EA22010EEECFDBFF020EEDCFDBFFD95074
:102BE000010FE96E000EDA20EA6EEE50ED1004E1FE
:102BF000DF50F2120B0EA0D0010EDBCFE9FF020E68
:102C0000DBCFEAFF0A0EE926000EEA22EECF00F043
:102C1000EFCF01F00050010B04E1DF50F212820E01
:102C20008BD0050EDB6A060EDB6A070EDB6A080E28
:102C3000DB6A010EDBCFE9FF020EDBCFEAFF060EF7
:102C4000E926000EEA22090EEECFDBFF0A0EEECFD8
:102C5000DBFF0B0EEECFDBFF0C0EEECFDBFF010E2A
:102C6000DBCFE9FF020EDBCFEAFF040EE926000E00
:102C7000EA22030EEECFDBFF040EEDCFDBFFDF50C9
:102C8000F212030EDBCFE9FFDB06040EDBCFEAFF17
:102C900001E2DB06EF500CE1D950050FE96E000EA2
:102CA000DA20EA6EEE2A000EEE22EE22EE22E9D7BC
:102CB000FB0EDBCFE9FFFC0EDBCFEAFF050EDBCF1F
:102CC000EEFF060EDBCFEEFF070EDBCFEEFF080EAA
:102CD000DBCFEEFF090EDBCF04F00A0EDBCF05F0F1
:102CE0000B0EDBCF06F00C0EDBCF07F0D950050F33
:102CF000E96E000EDA20EA6EEE50045C006EEE50D3
:102D00000558016EEE500658026EEE500758036EDD
:102D1000FB0EDBCFE9FFFC0EDBCFEAFF040EE9265A
:102D2000000EEA2200C0EEFF01C0EEFF02C0EEFF7F
:102D300003C0EEFF000E00D0006E0D0EE15C02E25B
:102D4000E16AE552E16E0050E552E5CFDAFFE7CFE8
:102D5000D9FF1200D9CFE6FFDACFE6FFE1CFD9FFE6
:102D6000E2CFDAFFE652E652E652E652FD0EDBCF44
:102D700000F0016A026A036A0F0E001805E10150B3
:102D800003E1025001E1035002E15B0EA1D0FD0E10
:102D9000DBCF00F0016A026A036AD8900350000A90
:102DA00008E60F0E005C000E0158000E0258000EDF
:102DB000035806E3FD0EDB50FF0802E02A0E88D020
:102DC000C00EF214DF6E800ED0143F09F216FD0E15
:102DD000DB50FF080EE1E6C1E9FFE7C1EAFF170E8D
:102DE000EB50E76EFD0EE7CFDBFFDE52010EDD6E2E
:102DF00011D0E6C1E9FFE7C1EAFF170EEB50F36E11
:102E0000FD0EDB50F35C04E1DE52010EDD6E02D0FC
:102E1000010EDB6AFD0EEA6ADB34FE0BEA36E96E70
:102E2000EE0EE926010EEA22020EEECFDBFF030EC4
:102E3000EDCFDBFFD950020FE96E000EDA20EA6E0B
:102E4000EE50ED1004E1DF50F2125A0E41D0020EA6
:102E5000DBCFE9FF030EDBCFEAFF1A0EE926000EF7
:102E6000EA22EF1C006E020EDBCFE9FF030EDBCF80
:102E7000EAFF190EE926000EEA22EF50EA6A7A0FFD
:102E8000E96E010EEA220050EF16EF500DE1020E3E
:102E9000DBCFE9FF030EDBCFEAFF1B0EE926000EB6
:102EA000EA22EF1C01017917020EDBCFE9FF030EC6
:102EB000DBCFEAFF160EE926000EEA22EF86DF508E
:102EC000F212010EDB0402E1C4EC06F0000E00D0A9
:102ED000006E040EE15C02E2E16AE552E16E005030
:102EE000E552E5CFDAFFE7CFD9FF1200D9CFE6FFF1
:102EF000DACFE6FFE1CFD9FFE2CFDAFFE652D950D1
:102F0000FC0FE96EFF0EDA20EA6E000ED880EE5458
:102F1000000EED5439E2C00EF214DF6E800ED014B4
:102F20003F09F216E6C1E9FFE7C1EAFF1A0EEB50CE
:102F3000E81C006EE6C1E9FFE7C1EAFF190EEB509D
:102F4000EA6A7A0FE96E010EEA220050EF16EF509E
:102F500009E1E6C1E9FFE7C1EAFF1B0EEB50E81CFF
:102F600001017917E6C1E9FFE7C1EAFF140EE9267E
:102F7000000EEA22FC0EDBCFEEFFFD0EDBCFEDFFF5
:102F8000DF50F212C4EC06F0E552E552E5CFDAFF6D
:102F9000E7CFD9FF1200D9CFE6FFDACFE6FFE1CFC6
:102FA000D9FFE2CFDAFF060EE12402E3E168E65240
:102FB000E16EFD0EDB50000815E3FC0EDB5000084F
:102FC00011E3FB0EDB5000080DE3D950F90FE96E59
:102FD000FF0EDA20EA6E000ED880EE54000EED549B
:102FE00001E337D1FC0EDB503B0802E2510E33D136
:102FF000FB0EDB503B0802E2520E2DD1D950F90FE7
:10300000E96EFF0EDA20EA6EE70ED880EE54030E6A
:10301000ED5402E2530E1FD1FD0EDBCF04F0056A22
:10302000066A076A100E216E0E0E226E236A246A4B
:1030300004C01CF005C01DF006C01EF007C01FF044
:1030400076EC2CF018C004F019C005F01AC006F098
:103050001BC007F0FC0EDBCF08F0096A0A6A0B6A96
:103060003C0E216E226A236A246A08C01CF009C043
:103070001DF00AC01EF00BC01FF076EC2CF018C03B
:1030800008F019C009F01AC00AF01BC00BF0085074
:103090000426095005220A5006220B500722FB0E77
:1030A000DBCF0CF00D6A0E6A0F6A04500C24006E20
:1030B00005500D20016E06500E20026E07500F20A5
:1030C000036E640E216E226A236A246A00C01CF01B
:1030D00001C01DF002C01EF003C01FF076EC2CF002
:1030E00018C000F019C001F01AC002F01BC003F0B4
:1030F000F90EDBCF10F0FA0EDBCF11F0126A136A73
:10310000050E1026000E1122000E1222000E1322B0
:10311000640E216E226A236A246A10C01CF011C05A
:103120001DF012C01EF013C01FF076EC2CF018C07A
:1031300010F019C011F01AC012F01BC013F0E80E05
:10314000216E030E226E236A246A10C01CF011C087
:103150001DF012C01EF013C01FF0E7EC2DF01CC0D4
:1031600010F01DC011F01EC012F01FC013F010505F
:10317000002611500122125002221350032200C0D7
:10318000DFFF010E01C0DBFF020E02C0DBFF030EFA
:1031900003C0DBFFD9CFE9FFDACFEAFFEECF1CF0A7
:1031A000EECF1DF0EECF1EF0EFCF1FF0216A226AA6
:1031B000010E236E246AE7EC2DF0040E1CC0DBFF29
:1031C000050E1DC0DBFFD9CFE9FFDACFEAFFEECF56
:1031D0001CF0EECF1DF0EECF1EF0EFCF1FF0216AF6
:1031E000226A010E236E246AE7EC2DF018C0DEFF80
:1031F00019C0DEFF1AC0DEFF1BC0DDFFDD52DD524D
:10320000000EDBCFE6FF010EDBCFE6FF6FDEE552FF
:10321000E552D950040FE96E000EDA20EA6E000E76
:10322000D880EE54000EED5412E2E66A800EE66E8F
:103230005DDEE552E552E66A800EE66E57DEE55247
:10324000E552040EDB06050E01E2DB06E2D7000EB6
:1032500002D0540E00D0006E060EE15C02E2E16A7C
:10326000E552E16E0050E552E5CFDAFFE7CFD9FF36
:103270001200D9CFE6FFDACFE6FFE1CFD9FFE2CFE8
:10328000DAFFE652E652E652FD0EDBCF00F0016AAD
:10329000026A036AD8900350000A08E60F0E005C29
:1032A000000E0158000E0258000E035802E32A0EC9
:1032B00081D0C00EF214DF6E800ED0143F09F216DA
:1032C000FD0EEA6ADB34FE0BEA36E96EEE0EE92605
:1032D000010EEA22010EEECFDBFF020EEDCFDBFF87
:1032E000D950010FE96E000EDA20EA6EEE50ED10B3
:1032F0005DE0010EDBCFE9FF020EDBCFEAFF140E2B
:10330000E926000EEA22EE50ED104CE0010EDBCF74
:10331000E9FF020EDBCFEAFF140EEB6A150EEB6A33
:10332000010EDBCFE9FF020EDBCFEAFF160EE92626
:10333000000EEA22EF50080B30E1010EDBCFE9FF6F
:10334000020EDBCFEAFF1B0EE926000EEA22EF5049
:1033500001017913010EDBCFE9FF020EDBCFEAFF9B
:103360001A0EE926000EEA22EFCF00F0010EDBCFA5
:10337000E9FF020EDBCFEAFF190EE926000EEA2272
:10338000EF50EA6A7A0FE96E010EEA220050EF125E
:10339000DF50F212C4EC06F002D0DF50F212000E41
:1033A00009D004D0DF50F212500E04D0DF50F212D8
:1033B0000B0E00D0E552E552E552E552E5CFDAFFBB
:1033C000E7CFD9FF1200D9CFE6FFDACFE6FFE1CF92
:1033D000D9FFE2CFDAFFE652E652E652E652E65273
:1033E000C00EF214DF6E800ED0143F09F216010EEB
:1033F0006AC3DBFF020E6BC3DBFF030E6CC3DBFF94
:10340000040E6DC3DBFFDF50F212010EDBCF00F0C4
:10341000020EDBCF01F0030EDBCF02F0040EDBCF98
:1034200003F000C01CF001C01DF002C01EF003C07C
:103430001FF000D0050EE15C02E2E16AE552E16EA8
:10344000E552E5CFDAFFE7CFD9FF1200D9CFE6FF8B
:10345000DACFE6FFE1CFD9FFE2CFDAFFE652C00EC6
:10346000F214DF6E800ED0143F09F216FA0EDBCF95
:103470006AF3FB0EDBCF6BF3FC0EDBCF6CF3FD0EC0
:10348000DBCF6DF3DF50F212E552E552E5CFDAFF04
:06349000E7CFD9FF120096
:0A34960087EC1FF0FB0EDBCFF3FF05
:1034A000DB06F35000090AE0D5EC1FF0FA0E40EC01
:1034B00020F0F3E1011CF1E1010E01D0000EB6EFA6
:1034C0001FF087EC1FF03B0EE12402E3E168E652B7
:1034D000E16E010EDB6A020EDB6AF90EDBCFF6FF4E
:1034E000FA0EDBCFF7FFFB0EDBCFF8FF0800F5503D
:1034F000DF6EDF5002E1DAEF1EF0250EDF5C02E046
:10350000CDEF1EF0030EDB6A040EDB6A050EDB6AEC
:10351000060EDB6A070EDB6AEFEC1EF02D0EDF5C99
:103520000CE02B0EDF5C09E0200EDF5C06E0230ED2
:10353000DF5C03E0300EDF5C1AE1DF50300A14E09C
:10354000130A0FE0030A0AE00B0A05E0060AE4E1A9
:10355000030EDB80E1D7030EDB82DED7030EDB84B4
:10356000DBD7030EDB86D8D7030EDB88D5D72A0E30
:10357000DF5C1BE1EBEC1EF039EC1FF010E0030EFA
:10358000DB801E681F68130EDBCF23F0140EDBCF29
:1035900024F091EC28F0040E1CC0DBFF03D0130EC6
:1035A00022EC1FF0EFEC1EF00BD0090EDB6A90EC62
:1035B0001FF003E004EC20F0FAD7090E22EC1FF014
:1035C000030EDBB0DB982E0EDF5C1BE1EFEC1EF090
:1035D0002A0EDF5C0BE1EBEC1EF039EC1FF003E18F
:1035E000130E74EC1FF0EFEC1EF00BD0090EDB6A2B
:1035F00090EC1FF003E004EC20F0FAD7090E74EC15
:103600001FF0680EDF5C07E1EFEC1EF0680EDF5C78
:103610001DE1030E18D0740EDF5C17E07A0EDF5C3C
:1036200014E0480EDF5C06E0540EDF5C03E05A0E47
:10363000DF5C02E1020E07D06C0EDF5C03E06A0E75
:10364000DF5C04E1010EC7EC1FF0C9DBDF506E0A3E
:1036500001E17FD31E0A01E192D1200A01E18FD15D
:103660003F0A01E149D11A0A01E146D10D0A01E1FF
:1036700043D1200A01E140D13A0A01E13DD1200ABB
:1036800001E13AD1260A01E135D10D0A01E132D139
:103690001A0A01E1D9D0200A4AE0300A1FE0460A9E
:1036A0000EE0250A01E083D3D950F90FE96EFF0E31
:1036B000DA20EA6E010EEE5E000EEE5AEE5AD5ECFE
:1036C0001FF0250EE66E95DB03E1011C01E169D3D5
:1036D000D1EC1FF001E26BD3DB2A69D3080EDB6A61
:1036E000040EDB50010806E2040EDB0499EC1FF027
:1036F000DB508BDB080EDB5009E0030EDB50010BC7
:1037000005E172DB01E04DD3080EDB6A64DBEFCF2D
:10371000DFFF49EC20F003E1011C01E142D3D1ECD1
:103720001FF001E3DB2A60DB01E141D33AD3070E4E
:10373000DB5002080FE115EC20F0030EDCEC1FF06B
:103740000E0EEECFDBFF0F0EEECFDBFF100EEECF37
:10375000DBFF20D0F70EDBCF03F0F80EDBCF04F059
:10376000020E035E000E045AF70E03C0DBFFF80ED4
:1037700004C0DBFF03C0E9FF04C0EAFFCCEC1FF08C
:10378000026A0E0E00C0DBFF0F0E01C0DBFF100E41
:1037900002C0DBFF0E0EDBCFE6FF0F0EDBCFE6FF36
:1037A000100EDBCFE6FFD4EC2BF0E552E552E552EC
:1037B000130E1DC0DBFF140E1EC0DBFF060EDB5018
:1037C00005E0130E10EC20F001E26ADB34EC20F08F
:1037D00002E2130E37DBF7EC1FF006E0040E10ECEC
:1037E00020F002E2050E2EDB030EDBB005D0FCDA82
:1037F00001E0D7D2080EDB6A090EDB6A0E0EDBCFC2
:10380000F6FF0F0EDBCFF7FF100EDBCFF8FF08003F
:10381000F550DF6EDF5014E03AEC20F011E249EC95
:1038200020F003E1011C01E1BCD2BBDB01E3DB2A98
:10383000090EDB2AD9500E0FE96E000ECBDBE7D75D
:10384000D3DA01E1B4D2ADD2C6DA110EEECFDBFF8E
:10385000120EEDCFDBFF110EDBCFE6FF120EDBCF3A
:10386000E6FFC6EC2BF0E552E552130EF3CFDBFF7B
:10387000140EF4CFDBFF060EDB5004E0130ED0DB9A
:1038800001E20EDB34EC20F002E2130EDBDAAFDBF8
:1038900005E0040EC5DB02E2050ED4DA030EDBB050
:1038A00005D0A2DA01E07DD2080EDB6A090EDB6AE0
:1038B000110EDBCFE9FF120EDBCFEAFFEFCFDFFF08
:1038C000DF5014E0D7DB12E2E4DB03E1011C01E18D
:1038D00068D267DB01E3DB2A090EDB2A110EDB2A43
:1038E000DBCFE9FF120EE8E3DB2AE6D77DDA01E160
:1038F0005ED257D2030EDB8E070EDB0410E195DBA0
:10390000040E5ADB0A0EEECFDBFF0B0EEECFDBFF11
:103910000C0EEECFDBFF0D0EEECFDBFF6CD0070EF3
:10392000DB5003082CE1030EDBAE0DD0B2DA020E41
:1039300076DAEFCF00F0016A026A036A00AE39D08E
:103940000168026835D0F70EDBCF01F0F80EDBCF4F
:1039500002F0020E015E000E025AF70E01C0DBFFFC
:10396000F80E02C0DBFF01C0E9FF02C0EAFFEFCFA3
:1039700000F00A0E00C0DBFF0B0EDB6A38D0070E2A
:10398000DB50020809E1030EDBAE04D059DB02AEC6
:1039900010D00ED055DB0DD0030EDBAE12D079DA8D
:1039A000020E3DDAF9DA026A036A01AE02D0026859
:1039B0000368E2DA0C0E02C0DBFF0D0E03C0DBFF72
:1039C0001AD0F70EDBCF02F0F80EDBCF03F0020EB9
:1039D000025E000E035AF70E02C0DBFFF80E03C0B2
:1039E000DBFF02C0E9FF03C0EAFFD6DAC5DA0C0E3E
:1039F000DB6A0D0EDB6A060EDB5005E1010EF36E8D
:103A0000050EF3CFDBFF150EDB6A160EDB6AD9500D
:103A1000370F006E000EDA20016E390E00C0DBFF9A
:103A20003A0E01C0DBFF380EDB6A080EDB6A0A0EB5
:103A3000AEDADF50780A12E0200A10E0280A0CE023
:103A4000200A0AE03F0A06E00D0A02E0200A08E127
:103A5000020E05D0080E03D0080EDF26100E97DAEE
:103A6000030EDBBE02D0DB92DB94DB50800B24E044
:103A70008ADAD890030EEB50000A08E6000EEE5CDE
:103A8000000EEE58000EEE58000EEE5815E213DA56
:103A9000216822682368246876EC2CF00A0E18C08E
:103AA000DBFF0B0E19C0DBFF0C0E1AC0DBFF0D0E87
:103AB0001BC0DBFF2D0E08D0030EDBA202D02B0EA5
:103AC00003D0DBA408D0200EF36E170EF3CFDBFF7C
:103AD000150EDB2A02D0170EDB6A050EDB5003E160
:103AE000B7D901E189D0970E006E5E0E016E000E0F
:103AF000026E070EDBCF03F0046A056A066A03C094
:103B000021F004C022F005C023F006C024F0D3D970
:103B1000E7EC2DF000501824F36E01501920F46EDC
:103B200002501A20F86EF4CFF7FFF3CFF6FF08002B
:103B3000090EF5CFDBFF580EDF5C0FE1610EF36E6F
:103B4000090E7BD90AE3200E006E090EDBCFE7FFDA
:103B50000050E75E090EE7CFDBFF070EDBCF00F07A
:103B6000016A026A036A0FDA00C021F001C022F084
:103B700002C023F003C024F0EECF1CF0EECF1DF006
:103B8000EECF1EF0EFCF1FF0E7EC2DF01FC0EDFFE2
:103B90001EC0EDFF1DC0EDFF1CC0EFFF390EDBCFD7
:103BA000E9FFDB063A0EDBCFEAFF01E2DB06090E96
:103BB000DBCFEFFF150EDB2A4BD995E1030EDBA619
:103BC0001DD06F0EDF5C06E1C1D918E3150EDB28AE
:103BD0005BDA14D0780EDF5C09E0580EDF5C06E09B
:103BE000620EDF5C03E0420EDF5C08E1020EF36E62
:103BF000160EF3CFDBFF02D0150EDB6A030EDB508F
:103C0000100B0EE0040EDBCF00F0050EDB50D88069
:103C1000005406E2060EDB5003E1040EDB5034DAFA
:103C200095D90AE2050EDBCFE7FF150EDB50E75E04
:103C3000050EE7CFDBFF02D0050EDB6A040EDBCFFB
:103C400000F0160E45D9D880005414E2160EDBCFD2
:103C5000E6FF150EDBCFE6FF040EDBCFE6FF050E19
:103C6000DB50E552E75CE552D880E754E552D88056
:103C7000E7545FD9030EDB50010B0BE1080EDB505C
:103C800008E0B2D801E08DD0080EDB50BED8080E97
:103C9000DB6A170EDB5007E088D9170EF1D903E174
:103CA000011C01E17ED0160EDB5016E07ED9300EED
:103CB000E66E9FD802E1011C74E077D9DFCFE6FF02
:103CC000F9EC2BF0E552E552E552F4CF01F000019A
:103CD000F31C02E1011C65E0050EDBCF00F0160EBF
:103CE000DB50D880005409E2050EDBCFE7FF160E4B
:103CF000DB50E75E050EE7CFDBFF300EE66E050E0C
:103D0000CBD94FE1390EDB2ADBCFE9FF3A0E01E3D5
:103D1000DB2ADBCFEAFF090EEFCFDBFFDB500EE043
:103D200044D9090EADD902E1011C3BE0390EDB2A72
:103D3000DBCFE9FF3A0EEDE3DB2AEBD755D831E1D3
:103D4000160EDBCFE6FF080EC3D8E552E7245DD898
:103D50002ED0070EDB50030A1CE0010A14E0030A10
:103D600007E07BD9DBCFEEFF020EDBCFEDFF1FD0EC
:103D7000F5D8056A03AE02D0046805682CD8BCD813
:103D800005C0EEFF14D0EAD803BE046824D8B4D826
:103D90000ED063D9DBCFEFFF0AD07BD905E1011C40
:103DA00003E1F368F46810D0FCD801E3DB2A79D989
:103DB00076EF1AF0010EDBCF00F0020EDBCF01F040
:103DC00000C0F3FF01C0F4FF3B0EE15C02E2E16AD8
:103DD000E552E16ECBD029D9020EDCEF1FF061D99C
:103DE0000800F550DF6E1200200EE66E080E4CEF54
:103DF00020F0F9EC2BF0E552E552E552F3CF00F05C
:103E0000F4CF01F00001F31C1200006E016AD950DA
:103E1000010F4DD90050EE260150ED221200045E34
:103E2000000E055AF70E04C0DBFFF80E05C0DBFFDD
:103E300004C0E9FF05C0EAFF1200DBCFF4FFF35036
:103E4000F45C1200DB50E76E040EE7CFDBFF1200DC
:103E50000A0EDBCF00F00B0EDBCF01F00C0EDBCF38
:103E600002F00D0EDBCF03F0005001100210031022
:103E70001200130EEECFDBFF140EEDCFDBFF130E9F
:103E8000DBCF00F0140EDBCF01F00001800E011437
:103E90001200F70EDBCF04F0F80EDBCF05F01200B6
:103EA000050EDB50E66ED950130F01D9E552E750ED
:103EB000EE6EED6A12000A0EDBCF1CF00B0EDBCFAC
:103EC0001DF00C0EDBCF1EF00D0EDBCF1FF012002D
:103ED000DBCFE6FF150EDBCFE6FF050EDB50E5522C
:103EE000E724E552E7241200DB50CED8010EF36E32
:103EF000060EF3CFDBFF1200EE50EFCFEAFFE96EC4
:103F000002C0EEFF03C0EEFF04C0EEFF1200D9CFE7
:103F1000E6FFDACFE6FFE1CFD9FFE2CFDAFF12000A
:103F2000DFCFE6FFE66ACCEC2EF0E552E552F35027
:103F30001200E76E080EE7CFDBFF1200EECF00F0B5
:103F4000EECF01F0EFCF02F0036A1200050EDBCFD7
:103F500000F0150EDB50D88000541200010EDBCFAC
:103F600002F0020EDBCF03F0046A1200E552E5CF47
:103F7000DAFFE7CFD9FF12000A0E00C0DBFF0B0EFD
:103F800001C0DBFF1200D9500A0F57EF20F0F36E8B
:103F9000070EF3CFDBFF1200EECF00F0EFCF01F002
:103FA0001200010EDB2A020E1200FC0EDBCFE6FF30
:103FB000FD0EDBCFE6FF1200005E000E015AF70E89
:103FC00000C0DBFFF80E01C0DBFF00C0E9FF01C04D
:103FD000EAFF1200DA20EA6EEF2AEECFF6FF000EBB
:103FE000EF22EECFF7FFEF22EECFF8FF1200040E24
:103FF000DBCFE6FF130EDB50E552E75C9ADFDB50C8
:1040000004DF060EDB501200090EDB500A0DF350E0
:10401000DF24D00FE76E090EE7CFDBFFEFEF1EF0D6
:10402000DB50F36E050E1DEF1FF0F70EDBCF00F037
:10403000F80EDBCF01F01200DFCFE6FFF9EF1EF044
:1040400028DF030EECDE9EEF1FF04BEC1AF0E5527A
:10405000E552E552E55200091200BDDEEE50EFCF09
:10406000EAFFE96E010E1200130EDB50F36E040E30
:104070001DEF1FF0040EDB50F36E090E1DEF1FF055
:10408000DBCFE6FFF9EF1EF0E76E050EE7CFDBFFB3
:1040900012008BDF1CEF20F0DBCFE6FF86DF25EF81
:1040A00020F0D950F90FE96EFF0EEAEF1FF0E96E2C
:0840B000000EDA20EA6E120096
:0840B800D9CFE6FFDACFE6FFE5
:1040C000E1CFD9FFE2CFDAFFE652E652DE6ADD6ADF
:1040D000938A8A9A939A300EE66E37EC2FF0E55267
:1040E000938A180EE66E37EC2FF0E5528150200BC4
:1040F000200A01E0010E006E016A00BE016800C0E6
:10410000DEFF01C0DDFFDF5000D0E552E552E55291
:10411000E5CFDAFFE7CFD9FF1200D9CFE6FFDACF3C
:10412000E6FFE1CFD9FFE2CFDAFFE652DF6ADFCF69
:1041300000F0080EE76E0018E8AE02D0E73402D0B7
:10414000E750005C22E28A9A939A010EE66E37EC01
:104150002FF0E552FD0EDB50010BE8B0938AE8A08A
:10416000939A050EE66E37EC2FF0E552938A020E15
:10417000E66E37EC2FF0E552FD0EDB407F0BE76E6D
:10418000FD0EE7CFDBFFDF2AD2D7E552E552E5CFC0
:10419000DAFFE7CFD9FF1200D9CFE6FFDACFE6FF8B
:1041A000E1CFD9FFE2CFDAFFE652E652DF6A010E35
:1041B000DB6A010EDBCF00F0080EE76E0018E8AEF8
:1041C00002D0E73402D0E750005C24E28A9A939A46
:1041D00000000000938A00000000000000000000C2
:1041E0000000000000008150200B01E0010EF36E82
:1041F000010EDB5004E0D890F336E806FCE1F35002
:10420000DF10DF6E050EE66E37EC2FF0E552010E83
:10421000DB2ACFD7DF5000D0E552E552E552E5CF9B
:10422000DAFFE7CFD9FF1200020EE66E37EC2FF06F
:10423000E55212000F0EE66EDEEC2EF0E552120093
:10424000050EE66EDEEC2EF0E5521200F29EF2A2B2
:104250000FD00501010E0E1901E10F5108E1050112
:10426000142B000E1523827005010E6B0F6BF2925A
:10427000A1A211D08276A192E66ACF0EE66E4BEC37
:104280002EF0E552E5520501102B000E1123050119
:10429000122B000E1323F28E6FC3E6FF70C3E6FFEE
:1042A0000BEC0DF0E552E5521200D9CFE6FFDACF64
:1042B000E6FFE1CFD9FFE2CFDAFFE652E652DE6A4F
:1042C000DD6A0C0E1E6E1F6A14C523F015C524F09E
:1042D00091EC28F01CC0DEFF1DC0DDFFDECF00F03A
:1042E000DDCF01F000C0F3FF01C0F4FF00D0E552C4
:1042F000E552E552E5CFDAFFE7CFD9FF120005011D
:104300000A6B0B6B05010C6B0D6B1200D9CFE6FF2E
:10431000DACFE6FFE1CFD9FFE2CFDAFFE652E6528D
:10432000E652E652020EDB6A010EF36E030EF3CF85
:10433000DBFF0F0E05010415DF6E040EF36E020E97
:10434000DBCFF4FFF350F45C01E390D00A0E006E73
:1043500000C024F0DFCF1FF029EC2FF0010E1BC0AE
:10436000DBFF010EDBCF08F008C01FF07CEC27F06C
:104370001DC004F01EC005F01FC006F020C007F0ED
:104380000D6A0E6A800E0F6E3D0E106E030EDBCFAF
:1043900015F015C01FF07CEC27F01DC011F01EC0F9
:1043A00012F01FC013F020C014F011C022F012C090
:1043B00023F013C024F014C025F00DC01DF00EC072
:1043C0001EF00FC01FF010C020F024EC28F01DC01C
:1043D00009F01EC00AF01FC00BF020C00CF009C08D
:1043E00022F00AC023F00BC024F00CC025F004C05A
:1043F0001DF005C01EF006C01FF007C020F024EC21
:1044000028F01DC000F01EC001F01FC002F020C047
:1044100003F006C522F007C523F008C524F009C53E
:1044200025F000C01DF001C01EF002C01FF003C047
:1044300020F08EEC27F01DC006F51EC007F51FC04A
:1044400008F520C009F5030EDB50020D030EF3CF73
:10445000DBFF0A0E006E00C024F0DFCF1FF029EC56
:104460002FF01F50DF6E020EDB2A67D7226A236A05
:104470007A0E246E440E256E06C51DF007C51EF08B
:1044800008C51FF009C520F024EC28F0BEEC28F088
:104490001EC00CF51FC00DF50CC50CF50DC50DF5B6
:1044A000640E236E246A0CC51EF00DC51FF0B6EC19
:1044B0002EF01EC00CF51FC00DF5040EE15C02E2EB
:1044C000E16AE552E16EE552E5CFDAFFE7CFD9FFC9
:1044D0001200D9CFE6FFDACFE6FFE1CFD9FFE2CF76
:1044E000DAFFE652E652E652DF6A010EDB6A020E9E
:1044F000DB6A050104390F0BDF6E020EDB50DF10A3
:10450000E76E020EE7CFDBFF05010339F00BDF6E2C
:10451000020EDB50DF10E76E020EE7CFDBFF050176
:104520000551000807E2020EDB507F0AE76E020E1B
:10453000E7CFDBFF020EDB5005010A6F0B6BE55284
:10454000E552E552E552E5CFDAFFE7CFD9FF120099
:10455000D9CFE6FFDACFE6FFE1CFD9FFE2CFDAFF2E
:104560000F0EE12402E3E168E652E16E0CC5E6FFBE
:104570000DC5E6FF0AC5E6FF0BC5E6FF890EE66E30
:104580005E0EE66E000EE66ED9CFE6FFDACFE6FFEE
:1045900007EC2BF0006E090EE15C02E2E16AE552E5
:1045A000E16E00502CEC2EF0000901E0FBD7E66A2A
:1045B000AEEC2CF0E552D9CFE6FFDACFE6FF68EC9F
:1045C0002DF0E552E5520F0EE15C02E2E16AE552A0
:1045D000E16EE552E5CFDAFFE7CFD9FF1200D9CF80
:1045E000E6FFDACFE6FFE1CFD9FFE2CFDAFFE6520E
:1045F000E65293966E0EE66E030EE66E000EE66EC3
:10460000E66A6FC3E6FF70C3E6FF42EC0CF0006E93
:10461000060EE15C02E2E16AE552E16E00504CDD1B
:10462000CC0EE66E7ADDE552440EE66E76DDE5529E
:1046300081768484010EDE6EDD6ADECF00F0DDCF90
:1046400001F0013404E200500808000E01540AE3AE
:10465000640EE66EDEEC2EF0E552DF2A010E01E379
:10466000DB2AEBD7849428DDCC0EE66E56DDE552CE
:10467000BE0EE66E52DDE5528FDD0501046F8CDD66
:104680000501036F43DE25DF63DF39DE6FC3E6FF1D
:1046900070C3E6FF0BEC0DF0E552E552000EE66E3E
:1046A000E66A010EE66EE66AE66ACBEC17F0006E8B
:1046B000050EE15C02E2E16AE552E16E00509AD734
:1046C000E6685FEC12F0E552E552E552E552E5CFBF
:1046D000DAFFE7CFD9FF1200D9CFE6FFDACFE6FF46
:1046E000E1CFD9FFE2CFDAFFE652E652E652E652D8
:1046F000E652030EDB6A040EDB6A93986E0EE66EDA
:10470000030EE66E000EE66EE66A6FC3E6FF70C348
:10471000E6FF42EC0CF0006E060EE15C02E2E16A9C
:10472000E552E16E00506E0EE66E030EE66E000E70
:10473000E66EE66A71C3E6FF72C3E6FF42EC0CF078
:10474000006E060EE15C02E2E16AE552E16E0050A5
:1047500081780501030E121901E1135107E1010EE1
:1047600005010E6F0F6B0501126B136B0501320E05
:10477000101901E111515BE1827497DD030EF3CF53
:10478000DBFF040EF4CFDBFFD9CFE6FFDACFE6FF85
:10479000030EDBCFE6FF040EDBCFE6FF73EC29F060
:1047A000E552E552E552E5522CEC2EF0000901E00D
:1047B000FBD72CEC2EF0000901E0FBD7400EE66E93
:1047C000AEEC2CF0E552840EE66E5E0EE66E000E48
:1047D000E66E3BEC2CF0E552E552E5522CEC2EF067
:1047E000000901E0FBD7450EE66EAEEC2CF0E55279
:1047F000D9CFE6FFDACFE6FF68EC2DF0E552E552BF
:104800000501106B116B0501146B156B000EE66E44
:10481000E66A010EE66EE66AE66ACBEC17F0006E19
:10482000050EE15C02E2E16AE552E16E005066D7F6
:10483000E6685FEC12F0E552050EE15C02E2E16A27
:10484000E552E16EE552E5CFDAFFE7CFD9FF12007E
:10485000D9CFE6FFDACFE6FFE1CFD9FFE2CFDAFF2B
:10486000E652E652E652E652E652030EDB6A040EC8
:10487000DB6AF29E96948494949493809490826AD6
:10488000F288F18CF28E1CEC00F09F0EE66E83EC49
:104890002EF0E552190EE66E110EE66E67EC2EF064
:1048A000E552E552F00EE66E0BEC2EF0E552E66AAC
:1048B000CF0EE66E4BEC2EF0E552E552D08EE66A56
:1048C000730EE66E030EE66E000EE66EE66ADE0E10
:1048D000E66E450EE66E000EE66E81EC10F0006EA0
:1048E000080EE15C02E2E16AE552E16E0050010E61
:1048F000E66E3B0EE66E040EE66E000EE66EE66AAF
:10490000D80EE66E460EE66E000EE66E81EC10F0F6
:10491000006E080EE15C02E2E16AE552E16E0050D1
:10492000010EE66EE66AAAEC0AF0E552E552F3CF14
:104930006FF3F4CF70F3000EE66EE66AAAEC0AF0AD
:10494000E552E552F3CF71F3F4CF72F32B0EE66E1E
:1049500091EC2AF0E5522CEC2EF0000901E0FBD797
:104960000C0EE66E3AEC2DF0E5522CEC2EF0000920
:1049700001E0FBD7010EE66E3AEC2DF0E5522CEC8F
:104980002EF0000901E0FBD7060EE66E3AEC2DF0A2
:10499000E5521FEC01F0050EE15C02E2E16AE5522E
:0E49A000E16EE552E5CFDAFFE7CFD9FF120056
:0249AE00D9CF5F
:1049B000E6FFDACFE6FFE1CFD9FFE2CFDAFFE6523A
:1049C000E652F70EDBCFDEFFDBCFDDFFDFCFE9FF07
:1049D000DF2A010EDBCFEAFF01E3DB2AF90EDBCF92
:1049E000EFFFDFCFE9FFDF2A010EDBCFEAFF01E3B4
:1049F000DB2AFA0EDBCFEFFFDFCFE9FFDF2A010E64
:104A0000DBCFEAFF01E3DB2AEF68DFCFE9FFDF2A34
:104A1000010EDBCFEAFF01E3DB2A1A0EEF6EDFCFD8
:104A2000E9FFDF2A010EDBCFEAFF01E3DB2A1B0EE1
:104A3000EF6EDFCFE9FFDF2A010EDBCFEAFF01E3F4
:104A4000DB2A1C0EEF6EDFCFE9FFDF2A010EDBCF82
:104A5000EAFF01E3DB2A1D0EEF6EDFCFE9FFDF2A5D
:104A6000010EDBCFEAFF01E3DB2A1E0EEF6EDFCF84
:104A7000E9FFDF2A010EDBCFEAFF01E3DB2A1F0E8D
:104A8000EF6EDFCFE9FFDF2A010EDBCFEAFF01E3A4
:104A9000DB2A2A0EEF6EDFCFE9FFDF2A010EDBCF24
:104AA000EAFF01E3DB2A2B0EEF6EDFCFE9FFDF2AFF
:104AB000010EDBCFEAFF01E3DB2A2C0EEF6EDFCF26
:104AC000E9FFDF2A010EDBCFEAFF01E3DB2A2D0E2F
:104AD000EF6EDFCFE9FFDF2A010EDBCFEAFF01E354
:104AE000DB2A2E0EEF6EDFCFE9FFDF2A010EDBCFD0
:104AF000EAFF01E3DB2A2F0EEF6EDFCFE9FFDF2AAB
:104B0000010EDBCFEAFF01E3DB2A3A0EEF6EDFCFC7
:104B1000E9FFDF2A010EDBCFEAFF01E3DB2A3B0ED0
:104B2000EF6EDFCFE9FFDF2A010EDBCFEAFF01E303
:104B3000DB2A3C0EEF6EDFCFE9FFDF2A010EDBCF71
:104B4000EAFF01E3DB2A3D0EEF6EDFCFE9FFDF2A4C
:104B5000010EDBCFEAFF01E3DB2AFB0EDBCFEFFF29
:104B6000DFCFE9FFDF2A010EDBCFEAFF01E3DB2A1B
:104B7000FC0EDBCFEFFFDFCFE9FFDF2A010EDBCF3B
:104B8000EAFF01E3DB2AFD0EDBCFEFFFDFCFE9FF1A
:104B9000DF2A010EDBCFEAFF01E3DB2A010EEF6E15
:104BA000DECF00F0DDCF01F000C0F3FF01C0F4FF65
:104BB00000D0E552E552E552E5CFDAFFE7CFD9FF65
:104BC0001200D9CFE6FFDACFE6FFE1CFD9FFE2CF7F
:104BD000DAFFE552E5CFDAFFE7CFD9FF1200D9CFF0
:104BE000E6FFDACFE6FFE1CFD9FFE2CFDAFFE55209
:104BF000E5CFDAFFE7CFD9FF120004001200120060
:104C00001200D9CFE6FFDACFE6FFE1CFD9FFE2CF3E
:104C1000DAFFE552E5CFDAFFE7CFD9FF1200120045
:104C200012001200EADF0101010E7C6FEAC1E9FF08
:104C3000EBC1EAFFEECFE1FFEDCFE2FF1F0EFC1468
:104C400002E00600FBD7FC5001E0FC6AE552E550AB
:104C5000E96E0500E550FF6EE550FE6EE550FD6E15
:104C6000E906F7E1E5CF1FF0E5CF1EF0E5CF1DF037
:104C7000E5CF1CF0E5CFF4FFE5CFF3FFE5CFF8FF7C
:104C8000E5CFF7FFE5CFF6FFE5CFDAFFE7CFD9FFB6
:104C9000E552E5CFEAFFE5CFE9FFE550E5CFE0FFDC
:104CA000E5CFD8FF10001200800ED0143F09F21695
:104CB000D8CFE4FFE0CFE4FFE46EE9CFE4FFEACF32
:104CC000E4FFE652D9CFE6FFDACFE6FFF6CFE6FF04
:104CD000F7CFE6FFF8CFE6FFF3CFE6FFF4CFE6FF2E
:104CE0001CC0E6FF1DC0E6FF1EC0E6FF1FC0E6FFBA
:104CF000E96A1F0EFC1409E0FDCFE6FFFECFE6FFD8
:104D0000FFCFE6FF0600E92AF4D7E9CFE6FFFC5023
:104D100001E0FC6AE6C1E9FFE7C1EAFFE1CFEEFF8F
:104D2000E2CFEDFF6ADFEAC1E6F1EBC1E7F178C15E
:104D300077F1EAC1E9FFEBC1EAFFEECFE1FFEDCF8A
:104D4000E2FFE552E550E96E0500E550FF6EE550E3
:104D5000FE6EE550FD6EE906F7E1E5CF1FF0E5CF09
:104D60001EF0E5CF1DF0E5CF1CF0E5CFF4FFE5CF59
:104D7000F3FFE5CFF8FFE5CFF7FFE5CFF6FFE5CF8F
:104D8000DAFFE7CFD9FFE552E5CFEAFFE5CFE9FF4C
:104D9000E550E5CFE0FFE5CFD8FF10001200D8CFF7
:104DA000E4FFE0CFE4FFE46EE9CFE4FFEACFE4FF05
:104DB000E652D9CFE6FFDACFE6FFF6CFE6FFF7CF30
:104DC000E6FFF8CFE6FFF3CFE6FFF4CFE6FF1CC027
:104DD000E6FF1DC0E6FF1EC0E6FF1FC0E6FF0101A3
:104DE000742BFEEC2EF03FEC00F0E552E5CF1FF007
:104DF000E5CF1EF0E5CF1DF0E5CF1CF0E5CFF4FFC9
:104E0000E5CFF3FFE5CFF8FFE5CFF7FFE5CFF6FFFE
:104E1000E5CFDAFFE7CFD9FFE552E5CFEAFFE5CFEF
:104E2000E9FFE550E5CFE0FFE5CFD8FF1000120025
:104E300006000600E552E552E552E96A1F0EFC1431
:104E400009E0FDCFE6FFFECFE6FFFFCFE6FF06005D
:104E5000E92AF4D7E9CFE6FFFC5001E0FC6AE6C19D
:104E6000E9FFE7C1EAFFE1CFEEFFE2CFEDFFC5DEEC
:104E7000EAC1E6F1EBC1E7F178C177F1EAC1E9FFF8
:104E8000EBC1EAFFEECFE1FFEDCFE2FF1F0EFC1416
:104E900002E00600FBD7FC5001E0FC6AE552E55059
:104EA000E96E0500E550FF6EE550FE6EE550FD6EC3
:104EB000E906F7E1E5CF1FF0E5CF1EF0E5CF1DF0E5
:104EC000E5CF1CF0E5CFF4FFE5CFF3FFE5CFF8FF2A
:104ED000E5CFF7FFE5CFF6FFE5CFDAFFE7CFD9FF64
:104EE000E552E5CFEAFFE5CFE9FFE550E5CFE0FF8A
:084EF000E5CFD8FF100012000D
:084EF800179E05D0179E1FAEA6
:104F000002D01F6C178E1FC019F0186A296A286A10
:104F1000860E1A6E1B6A09EF29F0257E176A45EC8A
:104F200029F05DEC29F017B6EDEF28F017A20AD0B2
:104F300017AA03D017BEEDEF28F017A4F9EF28F059
:104F4000F6EF28F017AA05D017ACF9EF28F0F6EF26
:104F500028F017A00AD017A808D017BE04D017A4AD
:104F600002D002EF29F006EF29F0286A1B6A2550CB
:104F7000205C276E10E31DC029F01EC018F01FC072
:104F800019F020C026F022C01DF023C01EF024C05E
:104F90001FF0173A09D022C029F023C018F024C00E
:104FA00019F025C026F0276C179E17BC178E26C057
:104FB0001AF017B035EF29F01A0E276035EF29F0F7
:104FC0001A6A206A17A408D01D6C1E1E1F1E201E00
:104FD000E86A1E221F22202217AC08D0296C181E56
:104FE000191E1A1EE86A182219221A221C6A275250
:104FF00007E020341F321E321D321C32272EF9D713
:105000001D5029261E5018221F50192220501A22E6
:105010001CC028F0179E1AAE0BD0286C291E181E33
:10502000191E1A1EE86A2922182219221A22178E1E
:105030001AA006D0D8801932183229322832262AEE
:1050400026C01AF009EF29F0176A45EC29F05DEC4B
:1050500029F017B6EDEF28F017A205D017B8EDEF3D
:1050600028F0F4EF28F017AA05D017B0EDEF28F0DC
:10507000F4EF28F017B002D017A802D000EF29F003
:105080001B6A255020241A6EE86A1B227E0E1A5EC7
:10509000E86A1B5A286A296A186A196A24501F028A
:1050A000F4CF19F0F3CF18F023501F02F350292644
:1050B000F4501822000E192224501E02F350292603
:1050C000F4501822000E192222501F02F3502826F5
:1050D000F4502922000E1822192223501E02F350E8
:1050E0002826F4502922000E1822192224501D02CD
:1050F000F3502826F4502922000E1822192222509B
:105100001E02F4502826000E2922182219222350AC
:105110001D02F4502826000E29221822192209EF18
:1051200029F01FC029F01EC028F01E502302F4CF22
:105130001DF0F3CF1CF01F502402F4CF1FF0F3CF6B
:105140001EF02302F3501D26F4501E22E86A1F228F
:1051500028502402F3501D26F4501E22E86A1F2214
:1051600024AEB7EF28F028501E5E29501F5A29AEF2
:10517000000C23501E5E24501F5A000C176A45EC89
:1051800029F017B6C8EF28F017A20ED017B405D033
:105190007F0E1F6EFF0E1E6E1FD0800E1F6E1E6ACA
:1051A0001BD01F6A1E6A18D017B0FBD78F0E206065
:1051B000EDD77E0E2064F5D78E0E205C05E0D890EA
:1051C0001F321E32202AF8D717A406D01E6C1F1ECD
:1051D000E86A1F221FAEE5D712007F0E206EFF0E79
:1051E0001F6E1E6E1D6E12007F0E17BEFF0E206E0C
:1051F00002D07F0E206E800E1F6E1E6A1D6AF3D7CE
:1052000017AE04D0800E206E1F6AF7D7206A1F6A7F
:10521000F4D71950181029102810F8E01BBEF0D749
:1052200019BE0CD01A501B10EBE0D8902836293646
:10523000183619361A06D8A01B06F2D71B50D4E12F
:105240001A28D2E028AE11D07F0E281402E129A03E
:105250000CD0292AE86A1822192207E3D8801932CB
:10526000183229321A2A1A28BFE01A50C9E029C078
:105270001DF018C01EF019341F6E1A30206E1F3238
:10528000209E17BE208EF3EF28F01F36203602E353
:105290001784177E06E11780206A1F6A1E6A1D6A3E
:1052A0001200202803E0D8801F321200D8901F324D
:1052B00002E117821200178612002436253602E317
:1052C000178C177E06E11788256A246A236A226AEA
:1052D0001200252803E0D88024321200D89024320E
:0652E000EAE1178A12004A
:0A52E600D9CFE6FFDACFE6FFFA0E9B
:1052F000E3CFD9FFFB0EE3CFDAFFFD0EE35209E760
:105300002D0EDE6EFC0EE31EE32AFD0ED8B4E3067E
:10531000E31EE652E652E652FD0EE124E76EFF0E72
:10532000E220E46EE652F70EE3CFE6FFF70EE3CF9E
:10533000E6FFE3EC29F0F90EE124E96EFF0EE2202E
:10534000EA6ED3EC29F00AE1D0EC29F009E1D3ECC4
:1053500029F008E1D0EC29F007E108D0DEEC29F0D3
:10536000D9EC29F0DEEC29F0D9EC29F0DEEC29F0BB
:10537000DE6AF90EE126FF0EE222FF0EE3CFDAFF2E
:10538000E552FF0EE3CFD9FFE552FC0EE124E96EB2
:10539000FF0EE220EA6EEECFF3FFEFCFF4FF120034
:1053A000EF380F0B1200EF500F0B02E1EE52D884D2
:1053B0001200EF380F0B300FDE6E1200EE500F0BA5
:1053C000300FDE6E1200FC0EE3CFE9FFFD0EE3CFDF
:1053D000EAFF100EE66EEE6AEE6AEF6AD890FD0EF6
:1053E000E336FE0EE336ED36ED36EF36FF0EE3061E
:1053F00009E004EC2AF0EE5204EC2AF0EE5204EC40
:105400002AF0EDD7E56E1200030EEF24E8B6EF6E3A
:0A541000300EEF24E8BEEF6E000C32
:06541A000102040810204D
:1054200040800000010002000100030001000200B2
:10543000010004000100020001000300010002005D
:10544000010005000100020001000300010002004C
:10545000010004000100020001000300010002003D
:10546000010006000100020001000300010002002B
:10547000010004000100020001000300010002001D
:10548000010005000100020001000300010002000C
:1054900001000400010002000100030001000200FD
:1054A00001000700010002000100030001000200EA
:1054B00001000400010002000100030001000200DD
:1054C00001000500010002000100030001000200CC
:1054D00001000400010002000100030001000200BD
:1054E00001000600010002000100030001000200AB
:1054F000010004000100020001000300010002009D
:10550000010005000100020001000300010002008B
:10551000010004000100020001000300010002007C
:02552000010088
:0E552200D9CFE6FFDACFE6FFE1CFD9FFE2CF27
:10553000DAFF0F0E83160F0E95169594959295909F
:105540008C948C928C901AEC21F0300EE66E3AEC32
:105550002DF0E552050EE66E9FEC2EF0E552300E72
:10556000E66E3AEC2DF0E552010EE66E9FEC2EF061
:10557000E552320EE66E3AEC2DF0E5522CEC2EF0B0
:10558000000901E0FBD72CEC2EF0000901E0FBD76D
:10559000FD0EDBCFE6FF3AEC2DF0E5522CEC2EF0C1
:1055A000000901E0FBD7080EE66E3AEC2DF0E5525B
:1055B0002CEC2EF0000901E0FBD70F0EE66E3AEC62
:1055C0002DF0E5522CEC2EF0000901E0FBD7010E86
:1055D000E66E3AEC2DF0E5522CEC2EF0000901E0DD
:1055E000FBD7130EE66E3AEC2DF0E5522CEC2EF0C4
:1055F000000901E0FBD7800EE66EAEEC2CF0E55220
:0E56000000D0E552E5CFDAFFE7CFD9FF120068
:02560E00D9CFF2
:10561000E6FFDACFE6FFE1CFD9FFE2CFDAFFE652CD
:10562000E652E652E652D950F90F006EFF0EDA202C
:10563000016E020E00C0DBFF030E01C0DBFF020E95
:10564000DBCFE6FF030EDBCFE6FFF90EDBCFE6FF95
:10565000FA0EDBCFE6FFFB0EDBCFE6FFD950FC0FE7
:10566000E66EFF0EDA20E66E61EC1AF0006E070EB1
:10567000E15C02E2E16AE552E16E0050F3CFDEFF49
:10568000F4CFDDFFFC0EDBCFE9FFFD0EDBCFEAFF41
:10569000EF6ADECF00F0DDCF01F000C0F3FF01C004
:1056A000F4FF040EE15C02E2E16AE552E16EE552CC
:0A56B000E5CFDAFFE7CFD9FF1200C3
:0656BA002A0EF66E000E40
:1056C000F76E000EF86E05010900F5501C6F090019
:1056D000F5501D6F03E11C6701D03DD00900F55066
:1056E000176F0900F550186F0900F550196F090080
:1056F0000900F550E96E0900F550EA6E090009004D
:105700000900F5501A6F0900F5501B6F09000900D8
:10571000F6CF1EF5F7CF1FF5F8CF20F517C5F6FF2A
:1057200018C5F7FF19C5F8FF05011A5302E11B530D
:1057300007E00900F550EE6E1A07F8E21B07F9D7EB
:105740001EC5F6FF1FC5F7FF20C5F8FF05011C07A2
:08575000000E1D5BBFD7120023
:08575800FE0EE3CFE9FFFF0E96
:10576000E3CFEAFFE9CFF3FFEACFF4FFFB0EE3500C
:1057700003E1FC0EE35009E0FB0EE30602E2FC0E3F
:10578000E306FD0EE350EE6EF1D71200FE0EE3CFFE
:10579000E9FFFF0EE3CFEAFFF36AF46AEE5203E09B
:1057A000F34AF42AFBD71200FF0EE3CFF8FFE552CD
:1057B000FF0EE3CFF7FFE552FF0EE3CFF6FFE55212
:1057C000E66AE66AE66A0900F55209E0FD0EE32A98
:1057D00005E1FE0EE32A02E1FF0EE32AF4D7FD0EF7
:1057E000E3CF1DF0FE0EE3CF1EF0FF0EE3CF1FF060
:0257F0001200A5
:0E57F200D9CFE6FFDACFE6FFE1CFD9FFE2CF55
:10580000DAFFFB0EDBCF00F0FC0EDBCF01F0000176
:10581000800E01141AE1FB0EDBCFE9FFFC0EDBCF9B
:10582000EAFFEECFF3FFEDCFF4FFEE2A000EEF22FA
:10583000F3CFE9FFF4CFEAFFFD0EDBCFEFFFEF5030
:10584000016AF36E01C0F4FF10D0FB0EDB50FE08BE
:1058500006E1FD0EDBCFE6FF1BEC2FF005D0FD0EC1
:10586000DBCFE6FF54EC2FF0E552E552E5CFDAFF4F
:06587000E7CFD9FF120092
:0A587600D9CFE6FFDACFE6FFE1CF5D
:10588000D9FFE2CFDAFFFB0EDBCFF6FFFC0EDBCF5A
:10589000F7FFFD0EDBCFF8FF0800F55020E02CEC01
:1058A0002EF0000901E0FBD7FB0EDBCFF6FFFC0E6C
:1058B000DBCFF7FFFD0EDBCFF8FF0800F550E66EFB
:1058C0000CEC2DF0E552D950FB0FE96EFF0EDA20FB
:1058D000EA6EEE2A000EEE22000EEE22D4D700D0A1
:0C58E000E552E5CFDAFFE7CFD9FF120058
:0458EC001C50210229
:1058F000F3CF18F0F4CF19F02202F3501926000E5E
:10590000F4201A6E1C502302F3501A26000EF420C5
:105910001B6E1C502402F3501B261D502102F35015
:105920001926F4501A22000E1B221D502202F35099
:105930001A26F4501B221D502302F3501B261E5022
:105940002102F3501A26F4501B221E502202F3505B
:0C5950001B261F502102F3501B261200E2
:04595C00D9CFE6FFBA
:10596000DACFE6FFE1CFD9FFE2CFDAFF0F0E9516CF
:105970000F0E8316FD0EDB508009F00B83128C9402
:105980008C9214EC21F08C8014EC21F08C900F0E92
:105990008316FD0EDB38F00BF00B831214EC21F0B4
:1059A0008C8014EC21F08C90F00E951200D0E55212
:0A59B000E5CFDAFFE7CFD9FF1200C0
:0659BA00D9CFE6FFDACFB1
:1059C000E6FFE1CFD9FFE2CFDAFF0F0E95160F0EFB
:1059D0008316FD0EDB504009F00B83128C948C92E1
:1059E00014EC21F08C8014EC21F08C900F0E8316B7
:1059F000FD0EDB38F00BF00B831214EC21F08C80E1
:105A000014EC21F08C90F00E951200D0E552E5CF09
:085A1000DAFFE7CFD9FF120015
:085A1800D9CFE6FFDACFE6FF6B
:105A2000E1CFD9FFE2CFDAFF0F0E95160F0E8316E6
:105A3000FD0EDB50F00B83128C828C9414EC21F061
:105A40008C8014EC21F08C900F0E8316FD0EDB3849
:105A5000F00BF00B831214EC21F08C8014EC21F08D
:105A60008C90F00E951200D0E552E5CFDAFFE7CF2B
:045A7000D9FF120048
:0C5A7400D9CFE6FFDACFE6FFE1CFD9FF83
:105A8000E2CFDAFF0F0E95160F0E8316FD0EDB50D8
