:020000040000FA
:0600000040EF04F01200C5
:020006001200E6
:060008003DEF00F01200C4
:02000E0042505E
:030010004D3A0066
:060018002CEF00F01200C5
:02001E000100DF
:0C002000B20800008A0000000800000088
:04002C0000000000D0
:1000300000000000010EE66E4EEC04F0E5521200E6
:10004000060EE66E03EC04F0E5521200020EE66EB8
:1000500003EC04F0E5521200D8CFE4FFE0CFE4FF58
:10006000E46EDACFE4FFE652E552E5CFDAFFE55081
:10007000E5CFE0FFE5CFD8FF1000DACFE4FFE2CF15
:10008000DAFFE9CFE4FFEACFE4FFF6CFE4FFF7CFF2
:10009000E4FFF5CFE4FFF3CFE4FFF4CFE4FFFACFC2
:1000A000E4FF00EE00F0140EE80403E3EECFE4FFFB
:1000B000FBD700EE14F0020EE80403E3EECFE4FFFA
:1000C000FBD7E652F29EF2A20CD00001010E8A1973
:1000D00007E18B5105E1902B000E91238A6B8B6B0E
:1000E000F292A1A208D0A192CDD800018C2B000ED3
:1000F0008D238E2B8F23F28EE55200EE15F0020E2B
:10010000E80403E3E5CFEDFFFBD700EE13F0140E98
:10011000E80403E3E5CFEDFFFBD7E5CFFAFFE5CF3A
:10012000F4FFE5CFF3FFE5CFF5FFE5CFF7FFE5CF30
:10013000F6FFE5CFEAFFE5CFE9FFE5CFDAFF1100F3
:10014000D9CFE6FFE1CFD9FF020EE126DE6ADD6AF4
:100150000C0E086E096A90C00DF091C00EF084EC90
:1001600002F006C0DEFF07C0DDFFDECF14F0DDCFFA
:1001700015F014C0F3FF15C0F4FF020EE15C02E2BB
:10018000E16AE552E16EE552E7CFD9FF1200D9CF1F
:10019000E6FFE1CFD9FF050EE126030EDB6A040E70
:1001A000DB6AF00EE66EA5EC03F0E5526BD8D08E5C
:1001B000280EE66E37EC02F0E5526CD8FEE1280E10
:1001C0005CD868D8FEE10F0E58D864D8FEE1060E60
:1001D00054D89380826AF288F18CF28E0001030E6B
:1001E0008E1907E18F5105E1010E8A6F8B6B8E6BC3
:1001F0008F6B320E8C19F2E18D51F0E18274A0DF29
:10020000030EF3CFDBFF040EF4CFDBFFD9CFE6FF05
:10021000DACFE6FF030EDBCFE6FF040EDBCFE6FF0F
:100220004EEC01F0E552E552E552E55233D8FEE1DD
:10023000010E23D82FD8FEE1E66AB1EC02F0E552B8
:100240000E0EE66E000EE66E83EC03F0E552E5520C
:1002500021D8FEE1400EE66EB1EC02F0E552D9CFB6
:10026000E6FFDACFE6FFC6EC03F0E552E552000107
:100270008C6B8D6B906B916BB1D7E66E1CEC03F0C1
:10028000E5521200E66ACF0EE66EE7EC03F0E552A7
:0C029000E55212001AEC04F00009120004
:04029C00D9CFE6FFD1
:1002A000DACFE6FFFA0EE3CFD9FFFB0EE3CFDAFF9A
:1002B000FD0EE35209E72D0EDE6EFC0EE31EE32A6F
:1002C000FD0ED8B4E306E31EE652E652E652FD0EFA
:1002D000E124E76EFF0EE220E46EE652F70EE3CF74
:1002E000E6FFF70EE3CFE6FFBEEC01F0F90EE124E6
:1002F000E96EFF0EE220EA6EAEEC01F00AE1ABEC33
:1003000001F009E1AEEC01F008E1ABEC01F007E12E
:1003100008D0B9EC01F0B4EC01F0B9EC01F0B4ECA8
:1003200001F0B9EC01F0DE6AF90EE126FF0EE222DF
:10033000FF0EE3CFDAFFE552FF0EE3CFD9FFE55220
:10034000FC0EE124E96EFF0EE220EA6EEECFF3FF31
:10035000EFCFF4FF1200EF380F0B1200EF500F0B2E
:1003600002E1EE52D8841200EF380F0B300FDE6E30
:100370001200EE500F0B300FDE6E1200FC0EE3CFBA
:10038000E9FFFD0EE3CFEAFF100EE66EEE6AEE6ABD
:10039000EF6AD890FD0EE336FE0EE336ED36ED360D
:1003A000EF36FF0EE30609E0DFEC01F0EE52DFEC82
:1003B00001F0EE52DFEC01F0EDD7E56E1200030E16
:1003C000EF24E8B6EF6E300EEF24E8BEEF6E000CBF
:1003D0001E0EF66E000EF76E000EF86E000109009C
:1003E000F550856F0900F550866F03E1856701D0F0
:1003F0003DD00900F550806F0900F550816F09006C
:10040000F550826F09000900F550E96E0900F550BA
:10041000EA6E090009000900F550836F0900F550E4
:10042000846F09000900F6CF87F0F7CF88F0F8CF86
:1004300089F080C0F6FF81C0F7FF82C0F8FF00019D
:10044000835302E1845307E00900F550EE6E830701
:10045000F8E28407F9D787C0F6FF88C0F7FF89C0A4
:0E046000F8FF00018507000E865BBFD7120073
:02046E00D9CFE4
:10047000E6FFE1CFD9FF0F0E83169516959495925E
:1004800095908C948C928C9020EC00F0300E33D8A8
:10049000050EE66E03EC04F0E552300E2CD8010E8A
:1004A000E66E03EC04F0E552320E25D829D8FEE1C1
:1004B00027D8FEE1FE0EDBCFE6FF1CEC03F0E55291
:1004C0001FD8FEE1080E17D81BD8FEE10F0E13D877
:1004D00017D8FEE1010E0FD813D8FEE1040E0BD899
:1004E0000FD8FEE1800EE66EB1EC02F0E552E55267
:1004F000E7CFD9FF1200E66E1CEC03F0E5521200C4
:080500001AEC04F000091200DE
:0805080009C013F008C012F055
:1005100008500D02F4CF07F0F3CF06F009500E0299
:10052000F4CF09F0F3CF08F00D02F3500726F45092
:100530000822E86A092212500E02F3500726F450EE
:100540000822E86A09220EAEAAEF02F01250085EF5
:100550001350095A13AE000C0D50085E0E50095A84
:02056000000C8D
:0E056200D9CFE6FFE1CFD9FF0F0E9516831615
:10057000FE0EDB508009F00B83128C948C920ED807
:100580000F0E8316FE0EDB38F00BF00B831206D82D
:10059000F00E9512E552E7CFD9FF120016EC00F0ED
:0A05A0008C8016EC00F08C90120025
:0605AA00D9CFE6FFE1CF0E
:1005B000D9FF0F0E95168316FE0EDB504009F00B87
:1005C00083128C948C920ED80F0E8316FE0EDB389D
:1005D000F00BF00B831206D8F00E9512E552E7CF20
:1005E000D9FF120016EC00F08C8016EC00F08C9015
:0205F0001200F7
:0E05F200D9CFE6FFE1CFD9FF0F0E9516831685
:10060000FE0EDB50F00B83128C828C940ED80F0EF2
:100610008316FE0EDB38F00BF00B831206D8F00EBB
:100620009512E552E7CFD9FF120016EC00F08C804E
:0806300016EC00F08C901200A2
:08063800D9CFE6FFE1CFD9FFA5
:100640000F0E95168316FE0EDB50F00B83128C9462
:100650008C920ED80F0E8316FE0EDB38F00BF00BCB
:10066000831206D8F00E9512E552E7CFD9FF12009B
:0E06700016EC00F08C8016EC00F08C9012005E
:02067E00D9CFD2
:10068000E6FFE1CFD9FFE6528C848C8216EC00F0B5
:100690008C8016EC00F0F00E8314DF6E8C9016EC5C
:1006A00000F08C8016EC00F083380F0B0F0BDF127C
:1006B0008C908C928C94DF50E552E552E7CFD9FFB5
:0206C000120026
:0E06C200D9CFE6FFE1CFD9FFE6528C848C92AF
:1006D00016EC00F08C8016EC00F0F00E8314DF6E48
:1006E0008C9016EC00F08C8016EC00F083380F0B29
:1006F0000F0BDF128C908C947F0EDF14E552E552C5
:06070000E7CFD9FF120053
:0A070600D9CFE6FFE1CFD9FF14D8E8
:100710000FE01AEC04F00009FCE10ED8E66EF9ECEB
:1007200002F0E552FD0EDB2AFE0EF1E3DB2AEFD7E5
:10073000E552E7CFD9FF1200FD0EDBCFF6FFFE0E2C
:0A074000DBCFF7FF0800F5501200B0
:06074A00D9CFE6FFDACF73
:10075000E6FFE1CFD9FFE2CFDAFFFD0EDB50360B2B
:10076000B16EB36AB26AA192FD0EDBAE02D0A08276
:1007700001D0A092DBA002D0B18E01D0B19EB18099
:0C078000E552E5CFDAFFE7CFD9FF120009
:04078C00D9CFE6FFDC
:10079000E1CFD9FF14D80FE01AEC04F00009FCE116
:1007A0000ED8E66EF9EC02F0E552FD0EDB2AFE0EE5
:1007B000F1E3DB2AEFD7E552E7CFD9FF1200FD0EB8
:0E07C000DBCFE9FFFE0EDBCFEAFFEF501200A9
:0207CE00D9CF81
:1007D000E6FFDACFE6FFE1CFD9FFE2CFDAFFE6525C
:1007E000E652FC0EDBCFDEFFDBCFDDFF010EDB5080
:1007F000B36EDF50B26EE552E552E552E5CFDAFF57
:06080000E7CFD9FF120052
:0A080600FF0EE350176EEF0E01D055
:10081000F30EE76EE72E0AEF04F00C0E166EE76A91
:10082000E72E10EF04F0162E0FEF04F0172E08EF4E
:0408300004F01200BE
:0C0834008C848C9216EC00F08C8016EC8A
:1008400000F083AE02D003D8010C01D8000C8C90CC
:1008500016EC00F08C8016EC00F08C908C9412005A
:10086000000EF36E00EE00F0060E01D81200EA60F2
:1008700002D0EE6AFCD7F350E9601200EE6AFCD7B2
:1008800015EE00F025EE00F0F86A019CE8EC01F0AE
:0C08900003EC00F0C7EC00F0FBD71200F6
:04089C00FF0EE35018
:1008A000E84E1200000000D000D000D0E82EFAD7A9
:0208B000120034
:0808B20001000000000000003D
:020000040030CA
:0100010022DC
:010003000EEE
:010006008178
:00000001FF
