:020000040000FA
:06000000DAEF00F012002F
:020006000000F8
:08000800060EF66E000EF76E05
:10001000000EF86E00010900F550856F0900F550DB
:10002000866F03E1856701D03DD00900F550806FF0
:100030000900F550816F0900F550826F0900090031
:10004000F550E96E0900F550EA6E09000900090053
:10005000F550836F0900F550846F09000900F6CF51
:1000600087F0F7CF88F0F8CF89F080C0F6FF81C025
:10007000F7FF82C0F8FF0001835302E1845307E0D9
:100080000900F550EE6E8307F8E28407F9D787C0C0
:10009000F6FF88C0F7FF89C0F8FF00018507000E52
:0600A000865BBFD71200D1
:0A00A600D9CFE6FFDACFE6FFE1CF85
:1000B000D9FFE2CFDAFFE652E652FC0EDBCF02F0C8
:1000C000FD0EDBCF03F0060ED89002360336E804AF
:1000D000FBE102C0DEFF03C0DDFF010EDB50BE6EA0
:1000E000DF50E840E8403F0B300B026ECF0EBD14EE
:1000F0000210BD6EE552E552E552E5CFDAFFE7CFDB
:04010000D9FF120011
:0C010400D9CFE6FFDACFE6FFE1CFD9FF4C
:10011000E2CFDAFFFD0EDB50FB0BCA6ECC6A9E927B
:10012000FD0EDBAE02D09D8201D09D92CA84E552C5
:0A013000E5CFDAFFE7CFD9FF120098
:06013A00D9CFE6FFDACF89
:10014000E6FFE1CFD9FFE2CFDAFF0C0EBD129494A7
:10015000CA94FD0EDB50CB6ECA84E552E5CFDAFFC0
:0A016000E7CFD9FF120094941200BB
:06016A0094941E0EE66EE7
:10017000E66A53EC00F0E552E552060EE66E82ECBC
:1001800000F0E5527E0EE66E9DEC00F0E552FAD7E7
:040190000300120056
:0C019400000EF36E00EE00F0060E01D825
:1001A0001200EA6002D0EE6AFCD7F350E960120058
:0401B000EE6AFCD720
:0C01B40015EE00F025EE00F0F86A019C4A
:1001C00004EC00F0E8EC00F0B5EC00F0FBD7120016
:0201D00012001B
:020000040030CA
:0100010022DC
:010003000EEE
:010006008178
:00000001FF
