:020000040000FA
:06000000DCEF04F0120029
:020006001200E6
:0600080035EF00F01200CC
:02000E0042505E
:030010004D3A0066
:04001400BD6A1200AF
:0600180024EF00F01200CD
:02001E000100DF
:0C002000EA0900008A0000000A0000004D
:04002C0000000000D0
:1000300000000000010EE66EEAEC04F0E55212004A
:10004000060E50D1020E4ED1D8CFE4FFE0CFE4FF30
:10005000E46EDACFE4FFE652E552E5CFDAFFE55091
:10006000E5CFE0FFE5CFD8FF1000DACFE4FFE2CF25
:10007000DAFFE9CFE4FFEACFE4FFF6CFE4FFF7CF02
:10008000E4FFF5CFE4FFF3CFE4FFF4CFE4FFFACFD2
:10009000E4FF00EE00F0140EE80403E3EECFE4FF0B
:1000A000FBD700EE14F0040EE80403E3EECFE4FF08
:1000B000FBD7E652F29EF2A20DD00001010E8A1982
:1000C00008E18B5106E1902B000E912382708A6B20
:1000D0008B6BF292A1A209D08276A1920DD9000178
:1000E0008C2B000E8D238E2B8F23F28EE55200EE8B
:1000F00017F0040EE80403E3E5CFEDFFFBD700EEB5
:1001000013F0140EE80403E3E5CFEDFFFBD7E5CFD2
:10011000FAFFE5CFF4FFE5CFF3FFE5CFF5FFE5CF3D
:10012000F7FFE5CFF6FFE5CFEAFFE5CFE9FFE5CF43
:10013000DAFF1100D9CFE6FFE1CFD9FF020EE126A9
:10014000DE6ADD6A0C0E086E096A90C00DF091C07F
:100150000EF0EDEC02F006C0DEFF07C0DDFFDECFE3
:1001600014F0DDCF15F014C0F3FF15C0F4FF020E3C
:10017000E15C02E2E16AE552E16EE552E7CFD9FFC8
:1001800012007E0EE66E87EC04F0E552030EE66E7A
:100190009FEC04F0E5520AEC00F0020EA3D0D9CF98
:1001A000E6FFE1CFD9FF050EE126030EDB6A040E60
:1001B000DB6AF00EE66E0EEC04F0E5529DD8D08EB0
:1001C000280EE66E71EC02F0E5529ED8FEE1280E94
:1001D0008ED89AD8FEE10F0E8AD896D8FEE1060E88
:1001E00086D8949493809490826AF288F18C949447
:1001F0003C0EE66EE66ABEEC02F0E552E552060EF3
:10020000E66E6CEC04F0E552F28E0001030E8E19DE
:1002100007E18F5105E1010E8A6F8B6B8E6B8F6B3F
:10022000320E8C19F2E18D51F0E1827483DF030EFE
:10023000F3CFDBFF040EF4CFDBFFD9CFE6FFDACF3D
:10024000E6FF030EDBCFE6FF040EDBCFE6FF88EC14
:1002500001F0E552E552E552E552030EDBCF14F012
:10026000040EDBCF15F0D890155004E6280E145C70
:10027000000E15580DE3030EDBCF16F0040EDBCF96
:1002800017F0173408E216508C08000E175403E2DA
:1002900078DF77DF76DF38D8FEE1010E28D834D852
:1002A000FEE1E66A1AEC03F0E5520E0EE66E000E71
:1002B000E66EECEC03F0E552E55226D8FEE1400E86
:1002C000E66E1AEC03F0E552D9CFE6FFDACFE6FF8F
:1002D0002FEC04F0E552E55200018C6B8D6B906BB6
:1002E000916B93D7E66E9FEC04F0E5521200E66E38
:1002F00085EC03F0E5521200E66ACF0EE66E50EC94
:1003000004F0E552E5521200B6EC04F000091200C8
:10031000D9CFE6FFDACFE6FFFA0EE3CFD9FFFB0E27
:10032000E3CFDAFFFD0EE35209E72D0EDE6EFC0E81
:10033000E31EE32AFD0ED8B4E306E31EE652E652BE
:10034000E652FD0EE124E76EFF0EE220E46EE65277
:10035000F70EE3CFE6FFF70EE3CFE6FFF8EC01F090
:10036000F90EE124E96EFF0EE220EA6EE8EC01F0FE
:100370000AE1E5EC01F009E1E8EC01F008E1E5EC67
:1003800001F007E108D0F3EC01F0EEEC01F0F3EC42
:1003900001F0EEEC01F0F3EC01F0DE6AF90EE1267B
:1003A000FF0EE222FF0EE3CFDAFFE552FF0EE3CFAE
:1003B000D9FFE552FC0EE124E96EFF0EE220EA6E61
:1003C000EECFF3FFEFCFF4FF1200EF380F0B120068
:1003D000EF500F0B02E1EE52D8841200EF380F0BF2
:1003E000300FDE6E1200EE500F0B300FDE6E12007B
:1003F000FC0EE3CFE9FFFD0EE3CFEAFF100EE66E41
:10040000EE6AEE6AEF6AD890FD0EE336FE0EE33632
:10041000ED36ED36EF36FF0EE30609E019EC02F09B
:10042000EE5219EC02F0EE5219EC02F0EDD7E56E47
:100430001200030EEF24E8B6EF6E300EEF24E8BE94
:04044000EF6E000C4F
:0C0444001E0EF66E000EF76E000EF86E35
:1004500000010900F550856F0900F550866F03E132
:10046000856701D03DD00900F550806F0900F55037
:10047000816F0900F550826F09000900F550E96E9F
:100480000900F550EA6E090009000900F550836F74
:100490000900F550846F09000900F6CF87F0F7CF07
:1004A00088F0F8CF89F080C0F6FF81C0F7FF82C0E6
:1004B000F8FF0001835302E1845307E00900F5507F
:1004C000EE6E8307F8E28407F9D787C0F6FF88C08D
:1004D000F7FF89C0F8FF00018507000E865BBFD7D4
:0204E000120008
:0E04E200D9CFE6FFE1CFD9FF0F0E8316951696
:1004F0009594959295908C948C928C9020EC00F031
:10050000300E33D8050EE66E9FEC04F0E552300E47
:100510002CD8010EE66E9FEC04F0E552320E25D881
:1005200029D8FEE127D8FEE1FE0EDBCFE6FF85EC01
:1005300003F0E5521FD8FEE1080E17D81BD8FEE1E4
:100540000F0E13D817D8FEE1010E0FD813D8FEE115
:10055000040E0BD80FD8FEE1800EE66E1AEC03F005
:10056000E552E552E7CFD9FF1200E66E85EC03F0C5
:0C057000E5521200B6EC04F00009120085
:04057C00D9CFE6FFEE
:10058000DACFE6FFE1CFD9FFE2CFDAFFE652E6525B
:10059000FC0EDBCF14F0FD0EDBCF15F0060ED8906D
:1005A00014361536E804FBE114C0DEFF15C0DDFF8C
:1005B000010EDB50BE6EDF50E840E8403F0B300BD1
:1005C000146ECF0EBD141410BD6EE552E552E55207
:0A05D000E5CFDAFFE7CFD9FF1200F4
:0605DA0009C013F008C087
:1005E00012F008500D02F4CF07F0F3CF06F00950D7
:1005F0000E02F4CF09F0F3CF08F00D02F3500726F6
:10060000F4500822E86A092212500E02F35007261D
:10061000F4500822E86A09220EAE13EF03F01250DC
:10062000085E1350095A13AE000C0D50085E0E50B0
:04063000095A000C57
:0C063400D9CFE6FFE1CFD9FF0F0E9516DD
:100640008316FE0EDB508009F00B83128C948C9283
:100650000ED80F0E8316FE0EDB38F00BF00B831254
:1006600006D8F00E9512E552E7CFD9FF120016EC2E
:0C06700000F08C8016EC00F08C90120062
:04067C00D9CFE6FFED
:10068000E1CFD9FF0F0E95168316FE0EDB50400901
:10069000F00B83128C948C920ED80F0E8316FE0EE4
:1006A000DB38F00BF00B831206D8F00E9512E552F2
:1006B000E7CFD9FF120016EC00F08C8016EC00F0AA
:0406C0008C90120008
:0C06C400D9CFE6FFE1CFD9FF0F0E95164D
:1006D0008316FE0EDB50F00B83128C828C940ED8A6
:1006E0000F0E8316FE0EDB38F00BF00B831206D8CC
:1006F000F00E9512E552E7CFD9FF120016EC00F08C
:0A0700008C8016EC00F08C901200C3
:06070A00D9CFE6FFE1CFAC
:10071000D9FF0F0E95168316FE0EDB50F00B8312D9
:100720008C948C920ED80F0E8316FE0EDB38F00BD5
:10073000F00B831206D8F00E9512E552E7CFD9FFE1
:10074000120016EC00F08C8016EC00F08C90120079
:10075000D9CFE6FFE1CFD9FFE6528C848C8216EC2C
:1007600000F08C8016EC00F0F00E8314DF6E8C909D
:1007700016EC00F08C8016EC00F083380F0B0F0B9A
:10078000DF128C908C928C94DF50E552E552E7CFCB
:04079000D9FF12007B
:0C079400D9CFE6FFE1CFD9FFE6528C84FC
:1007A0008C9216EC00F08C8016EC00F0F00E8314A6
:1007B000DF6E8C9016EC00F08C8016EC00F0833825
:1007C0000F0B0F0BDF128C908C947F0EDF14E55211
:0807D000E552E7CFD9FF12004A
:0807D800D9CFE6FFE1CFD9FF04
:1007E00014D80FE0B6EC04F00009FCE10ED8E66E78
:1007F00062EC03F0E552FD0EDB2AFE0EF1E3DB2A8C
:10080000EFD7E552E7CFD9FF1200FD0EDBCFF6FFA1
:0C081000FE0EDBCFF7FF0800F5501200D1
:04081C00D9CFE6FF4B
:10082000DACFE6FFE1CFD9FFE2CFDAFFFD0EDB50F2
:10083000360BB16EB36AB26AA192FD0EDBAE02D086
:10084000A08201D0A092DBA002D0B18E01D0B19ED7
:0E085000B180E552E5CFDAFFE7CFD9FF120005
:02085E00D9CFF0
:10086000E6FFE1CFD9FF14D80FE0B6EC04F00009A1
:10087000FCE10ED8E66E62EC03F0E552FD0EDB2AD9
:10088000FE0EF1E3DB2AEFD7E552E7CFD9FF1200E6
:10089000FD0EDBCFE9FFFE0EDBCFEAFFEF501200CB
:1008A000D9CFE6FFDACFE6FFE1CFD9FFE2CFDAFF1B
:1008B000E652E652FC0EDBCFDEFFDBCFDDFF010EA2
:1008C000DB50B36EDF50B26EE552E552E552E5CF34
:0808D000DAFFE7CFD9FF1200A7
:0808D800D9CFE6FFDACFE6FFFD
:1008E000E1CFD9FFE2CFDAFFFD0EDB50FB0BCA6E82
:1008F000CC6A9E92FD0EDBAE02D09D8201D09D920D
:0E090000CA84E552E5CFDAFFE7CFD9FF120037
:02090E00D9CF3F
:10091000E6FFDACFE6FFE1CFD9FFE2CFDAFF0C0E38
:10092000BD129494CA94FD0EDB50CB6ECA84E5527E
:0E093000E5CFDAFFE7CFD9FF12009494120052
:02093E00FF0EAA
:10094000E350196EEF0E01D0F30EE76EE72EA6EF1F
:1009500004F00C0E186EE76AE72EACEF04F0182EC8
:0C096000ABEF04F0192EA4EF04F012001D
:04096C008C848C9259
:1009700016EC00F08C8016EC00F083AE02D003D8A9
:10098000010C01D8000C8C9016EC00F08C8016EC59
:0809900000F08C908C94120021
:08099800000EF36E00EE00F00A
:1009A000060E01D81200EA6002D0EE6AFCD7F350BE
:0809B000E9601200EE6AFCD7B9
:0809B80015EE00F025EE00F041
:1009C000F86A019C22EC02F003EC00F0CFEC00F09E
:0409D000FBD712003F
:0C09D400FF0EE350E84E1200000000D0BF
:0A09E00000D000D0E82EFAD7120074
:0609EA0001000000000006
:0409F0000000000003
:020000040030CA
:0100010022DC
:010003000EEE
:010006008178
:00000001FF
